:02000002D0002C
:1040000000400D0034630D00000006000C000501A7
:084010000401E80500000000B6
:04401800485E0D00F1
:10401C0009480A49884208B505D0094A824202D0AB
:10402C00121A01F0C7FE0748074A0021121A01F0C4
:10403C00CCFE014808BD00BF68DE0320A4620D0061
:10404C00D0DE0320D0DE0320F0E7032070B501F0B2
:10405C002FF9074C074BE41AA40800251E46A5426D
:10406C0004D056F8253098470135F8E770BD00BFED
:10407C009C620D0058620D0000F01CB808B500F0F1
:10408C0045F8BDE8084001F0D5B800F0A1BF00F03C
:10409C009FBF0078B0FA80F040097047012303708D
:1040AC00704710B50446006808B100F091FF204637
:1040BC0010BD00001FB501F0FBF94FF4165101F0D3
:1040CC00EBF901F0D9FC572301460D4A0D4800F0DD
:1040DC007BFA28B901F0ECF90B4901F038F8FEE74E
:1040EC00C82140F29B124FF480538DE80E00054816
:1040FC0002230422372100F026FB05B05DF804FBF7
:10410C00801A060078E003205C5E0D002DE9F04F6C
:10411C007E4D87B000277E4800F03BF918B97C48EB
:10412C0000F079F9F7E77A487A4CDFF8E09100F083
:10413C0027FA45F82700764800F02EFA44F82700B5
:10414C00734800F033F901F0B3F9734900F0E5FF5F
:10415C0001F0AEF90A2255F8271000F0FAFF01F031
:10416C00A7F96E4900F0D9FF01F0A2F954F8271015
:10417C0006460A2200F0EDFF0137304600F0D1FF71
:10418C00322FC8D1DFF8B881654E664D0296019585
:10419C00CDF80080644B4A463946204600F044FC7A
:1041AC00CDF81080002309EB0302526E49F803206E
:1041BC00E218526EE2500433642BF4D1DFF88481A0
:1041CC005A4F4FF0000A524800F0E3F818B9504823
:1041DC0000F021F9F7E74E4800F0D2F9C8F80000DA
:1041EC004B4800F0D9F93860494800F0DFF801F08D
:1041FC005FF9494900F091FF01F05AF90A22D8F809
:10420C00001000F0A6FF01F053F9444900F085FFBF
:10421C0001F04EF90A22396800F09BFF01F048F9D1
:10422C00434900F07AFF01F043F92B68002B8346D9
:10423C0006DA2D21059300F06DFF059B594200E035
:10424C0019460A22584600F084FF01F031F9394929
:10425C0000F063FF01F02CF996F90030002B834637
:10426C0006DA2D21059300F055FF059B594200E01D
:10427C0019460A22584600F06CFF01F019F92E4934
:10428C0000F04BFF01F014F9274B1B68002B834601
:10429C0006DA2D21059300F03DFF059B594200E005
:1042AC0019460A22584600F054FF01F001F923493F
:1042BC0000F033FF01F0FCF8049B93F90030002B65
:1042CC00834606DA2D21059300F024FF059B594205
:1042DC0000E019460A22584600F03BFF0AF1040A96
:1042EC00584600F01EFFBAF1640F08F1040807F1FC
:1042FC0004077FF468AF049B0093029601950A4B68
:10430C00024A0448322100F08FFB4BE7D8DE032031
:10431C0078E00320A4DF03208F5E0D00945E0D0077
:10432C00B4E00320A0DF0320B8E0032008E0032062
:10433C009A5E0D00A05E0D00AB5E0D00B35E0D002D
:10434C00D4DE03203CDF032010B50C4C00F0ACFC99
:10435C0000232360A380A371238102204FF6FF73F7
:10436C00638100F0B1FD2046054A064901F0AAFB25
:10437C000548BDE8104000F00BB800BF6CE003200E
:10438C00D0DE0320AF400D0078E0032000F08CBCA1
:10439C00704790F8383090F839001B1ADBB258B2DD
:1043AC000028BCBF043358B2C0B2704708B50246EF
:1043BC00FFF7EFFF30B192F83930013303F003030C
:1043CC0082F8393008BD70B50446006816460D46B3
:1043DC0001F08BF92068036831469B6898470021EF
:1043EC00206801F089F901222946206801F07AF948
:1043FC00206803681B69984720B1206803685B69D3
:10440C009847C0B270BD04220179FFF7DCBF0622C9
:10441C000179FFF7D8BF2DE9F7430446FFF7F7FF03
:10442C0005462046FFF7EFFF854200F08E80471BC4
:10443C004FF057012068667948BF203701F059F9D1
:10444C002068036807219B689847206801F058F999
:10445C007E4306EB46064FF020084FF00009002E75
:10446C0074DD202EC8BF65792068C9BF05EB4505F2
:10447C00354698FBF5F35D432A465721761B01F030
:10448C0031F9002DEBDD94F8383020688DF8079069
:10449C00013303F0030384F8383003685B699847F1
:1044AC008DF80600206803685B6998478DF8050055
:1044BC00206803685B69984794F838308DF80400DD
:1044CC00019A0233C2F3110244F823206379012BC1
:1044DC0019D9206803685B6998478DF80600206835
:1044EC0003685B6998478DF80500206803685B6971
:1044FC00984794F838308DF80400019A0633C2F3CB
:10450C00110244F823206379022B19D9206803681F
:10451C005B6998478DF80600206803685B699847CB
:10452C008DF80500206803685B69984794F838306B
:10453C008DF80400019A0A33C2F3110244F82320C7
:10454C006379A3EB83031D449BE70027B8B203B048
:10455C00BDE8F08370B505460E4600F0B5FB044689
:10456C0000F0B2FB001BB04208D82846FFF753FFFF
:10457C00012804D0012000F01FFEF1E7002070BDDF
:10458C0010B5FA210446FFF7E5FF20B194F8383056
:10459C00023354F8230010BD10B5FA210446FFF77E
:1045AC00D9FF20B194F83830063354F8230010BDED
:1045BC00FF220179FFF707BF10B5FE2201790446EF
:1045CC00FFF701FFA07110BD70B5044616460846F2
:1045DC0021601D4601F052F83146206801F04AF87E
:1045EC0025712046FFF7E4FF152804D12046FFF77C
:1045FC00E3FF012070BD002070BD70B5044600685B
:10460C0016461D4601F071F82068036831469B6818
:10461C0098472068036829469A6890472068BDE847
:10462C00704001F06DB80B460C220179FFF7E5BF25
:10463C000B460D220179FFF7E0BF0B460E220179E4
:10464C00FFF7DBBF0B4610220179FFF7D6BF10B581
:10465C000446017900230422FFF7CFFF217920467D
:10466C0000230522FFF7C9FF2179204600230622EB
:10467C00BDE81040FFF7C1BF2DE9F0410E461546CD
:10468C000A46017904461F46FFF79DFE284047EA7B
:10469C000003324621792046BDE8F041FFF7ADBF5B
:1046AC0038B5BF22402309210446FFF7E5FF00F08F
:1046BC000BFB054600F008FB401B63280AD80922B7
:1046CC0021792046FFF77FFE430603D5012000F039
:1046DC0073FDEFE738BD0B46F8220921FFF7CCBF7D
:1046EC000B469F220A21FFF7C7BF0B46E3220A2184
:1046FC00FFF7C2BF0B46FC220A21FFF7BDBF0B46DA
:10470C001F220821FFF7B8BF1023EF220821FFF763
:10471C00B3BF01391346032914D8DFE801F00204B2
:10472C000A0CF82203E01B0103F0F0038F22112185
:10473C0006E0F82203E01B0103F0F0038F221221A4
:10474C00FFF79ABF70472DE9F047164608AD0446AF
:10475C0088461F4695E82006FFF7A2FF012E01D1DF
:10476C00002112E0022E01D120210EE0042E01D1F5
:10477C0040210AE0082E01D1602106E0102E01D163
:10478C00802102E0202EF3D1A0212046FFF7B7FFB5
:10479C002046FFF7B9FF032F01D1072103E0022FB9
:1047AC000CBF032102212046FFF795FFBAF5805F6D
:1047BC00677101DA00210BE0BAF5005F01DA202104
:1047CC0006E0BAF5804F01DA402101E0F2D1602118
:1047DC002046FFF785FF632D01DC00211EE0C72D6D
:1047EC0001DC04211AE0B5F5C87F01DA082115E0D7
:1047FC00B5F5487F01DA0C2110E0B5F57A7F01DAC6
:10480C0010210BE0B5F5C86F01DA142106E0B5F5FF
:10481C00486F01DA182101E0DFD11C212046FFF797
:10482C0064FFB9F1750F01DC00210EE0B9F1D60F70
:10483C0001DC012109E0B9F5CD7F01DC022104E0A6
:10484C0040F29B139945EFD103212046FFF752FF0D
:10485C0041462046FFF7E7FE41462046FFF7E8FEBB
:10486C0041462046FFF7E9FE41462046FFF7EAFEA7
:10487C00012211462046FFF74CFF012F0CD92023B3
:10488C008F2211212046FFF7F7FE022F04D00322BE
:10489C0011462046FFF73DFF2046BDE8F047FFF7E5
:1048AC00D6BE00F001BA2DE9F043002481460C601D
:1048BC00012503F1FF3C65452DDA079C52F8256074
:1048CC00A6424FEA850705F1010422DD174457F88B
:1048DC00047CBE421DDD9C42C5EB040E274607D06E
:1048EC0052F82400864204F1010801D14446F2E753
:1048FC0052F82440A64201DC3D46DCE70C680E2C45
:10490C00FADC661C0E6049F824500EF1010467199C
:10491C00F2E72746F0E7BDE8F083F0B50123044643
:10492C008B4211DA54F8046F1A462546002A07DD2B
:10493C0055F8047CBE4203DA45F80479013AF5E7F0
:10494C0040F822600133EBE7F0BD2DE9F043012381
:10495C0096460D46734518DA55F8047F1C4600EB55
:10496C00870C2E46002C0CDDDCF8002056F8049C3D
:10497C00904650F82920904503DD46F80499013CF7
:10498C00F0E741F824700133E4E7BDE8F083F8B5B3
:10499C0004461F4610460D460A682146FFF7D5FF10
:1049AC00261F4FF0FF32C7F1000C29688A4222DA29
:1049BC0001F18041013201392A6004EB810130465A
:1049CC00884201D10436F0E750F8043F12B1D6F812
:1049DC0000E001E04FF0FF3ECEEB0303BB4201DCF5
:1049EC006345EDDAD5F800E00EF101032B600368A6
:1049FC0044F82E30E4E72046BDE8F840FFF78DBFC1
:104A0C00F7B5089F009705460C46FFF74CFF099B2E
:104A1C002846FFF7BCFF22680A9B9A42D4BF22604B
:104A2C00236003B0F0BD00002DE9F04F9FB093461A
:104A3C00DDF8A4A0DDF8A8900593002280460E4670
:104A4C001346B24204DA58F8221001320B44F8E74C
:104A5C008848B3FBF6F20023B342864F06DA58F8C7
:104A6C002310511A40F823100133F5E73B4600217F
:104A7C00042493E805009D68024415440131DA686A
:104A8C0060292A4492FBF4F243F8042BF1D1002361
:104A9C001A4657F822100132642A0B44F9D193FBC1
:104AAC00F2F31D2B03DD3C2BA8BF3C2300E01E239F
:104ABC00002211460FAD002445F8221001320F2AB6
:104ACC00F8D102920422019200936A4A642309A944
:104ADC002846FFF795FF099B012B16DD012255F89F
:104AEC00040F55F8041C0132411A93420C44F6D1C0
:104AFC005A1E94FBF2F440F2DC5292FBF4F40122C5
:104B0C00CAF8004089F8002004E05B4ACAF800208B
:104B1C0089F8004059490022B24209DA58F82200BB
:104B2C0047F822005BF8220041F822000132F3E73B
:104B3C0000220A920B920C920D920E929A420DF157
:104B4C003C0B0ADB0025013B2E462C4604950693B4
:104B5C00DFF828E1DFF81C8118E05BF822106429EB
:104B6C007EDC0132EAE758F8227058F82C00C7EBCB
:104B7C00000AA81A00FB0AF090FBF9F0384458F828
:104B8C0026703F1A7943C91100292ADC049B069A26
:104B9C00934243DA5BF804CF5BF8042CC2EB0C09AC
:104BAC000133B9F1030F0493F0DD4FF07F4310464E
:104BBC0019466045D7DA870007972E4F57F820A083
:104BCC005345A8BF9A464FEA8003B8BF054653F831
:104BDC000E70B942ACBF0F460646534601303946FB
:104BEC00E7E7042CD2DC5EF822705EF82C00B21AD7
:104BFC00C01B42435EF8260092FBF9F21744C71B18
:104C0C007B43DB11C2D01EAA02EB840C64225343FB
:104C1C00013493FBF1F14CF8501CB7E721460AA87C
:104C2C006410FFF77AFE012C1EAA4FEA84030BDDF9
:104C3C0002EB84041A4454F8541C52F8503C0222DF
:104C4C000B4493FBF2F302E0134453F8503CDA1E8E
:104C5C00B42A05D80A4AD35C059A1360012303E0F1
:104C6C00059A054B13600023289A13701FB0BDE8FA
:104C7C00F08F00BFBCE0032019FCFFFF4CE20320C7
:104C8C00C05E0D0000F010B808B5024B1B689B68A5
:104C9C00019308BD6802030008B5024B1B68DB6872
:104CAC00019308BD6802030008B5024B1B681B6822
:104CBC00019308BD2C02030008B5024B1B685B680E
:104CCC00019308BD1802030008B5024B1B685B6911
:104CDC00019308BD1802030008B5024B1B689B68C2
:104CEC00019308BD4802030008B5024B1B681B6901
:104CFC00019308BD4802030008B5024B1B685B69B1
:104D0C00019308BD4802030008B5024B1B685B6C9D
:104D1C00019308BD4802030008B5024B1B689B6C4D
:104D2C00019308BD4802030008B5024B1B685B6980
:104D3C00019308BD6402030008B5024B1B681B6895
:104D4C00019308BD3C02030008B5024B1B68DB68ED
:104D5C00019308BD3C02030008B5024B1B681B699C
:104D6C00019308BD3C02030008B5024B1B685B694C
:104D7C00019308BD3C02030008B5024B1B689B69FC
:104D8C00019308BD3C02030008B5024B1B68DB69AC
:104D9C00019308BD3C02030008B5024B1B689B6ADB
:104DAC00019308BD3C02030008B5024B1B681B684D
:104DBC00019308BD2802030008B5024B1B68DB6891
:104DCC00019308BD2802030008B5024B1B689B69C0
:104DDC00019308BD2802030008B5024B1B68DB6970
:104DEC00019308BD2802030008B5024B1B681B6A1F
:104DFC00019308BD2802030008B5024B1B685B6ACF
:104E0C00019308BD2802030008B5024B1B689B6A7E
:104E1C00019308BD2802030008B5024B1B68DB6A2E
:104E2C00019308BD2802030008B5024B1B681B6BDD
:104E3C00019308BD2802030008B5024B1B681B6CCC
:104E4C00019308BD2802030008B5024B1B681B6DBB
:104E5C00019308BD2802030008B5024B1B681B68B0
:104E6C00019308BD4C02030008B5024B1B685B683C
:104E7C00019308BD4C02030008B5024B1B681B696B
:104E8C00019308BD4C02030008B5024B1B685B691B
:104E9C00019308BD4C02030008B5024B1B689B69CB
:104EAC00019308BD4C02030008B5024B1B68DB697B
:104EBC00019308BD4C02030008B5024B1B681B6A2A
:104ECC00019308BD4C02030008B5024B1B685B68DC
:104EDC00019308BD2002030008B5024B1B685B69F7
:104EEC00019308BD2002030008B5034B1B68D3F8DF
:104EFC008830019308BD00002002030008B5034B65
:104F0C001B68D3F89430019308BD00002002030005
:104F1C0008B5024B1B685B68019308BD4002030097
:104F2C0008B5024B1B689B68019308BD4002030047
:104F3C0008B5024B1B68DB68019308BD40020300F7
:104F4C0008B5024B1B681B69019308BD40020300A6
:104F5C0008B5024B1B685B69019308BD4002030056
:104F6C0008B5024B1B689B69019308BD4002030006
:104F7C0008B5024B1B68DB69019308BD40020300B6
:104F8C0008B5024B1B681B6A019308BD4002030065
:104F9C0008B5024B1B681B6B019308BD4002030054
:104FAC0008B5024B1B685B6B019308BD4002030004
:104FBC0008B5024B1B68DB6B019308BD4402030070
:104FCC0008B5024B1B681B68019308BD1C0203004B
:104FDC0008B5024B1B685B68019308BD1C020300FB
:104FEC00002211464068FFF7CBBF002211464068F3
:104FFC00FFF7D6BF00224068FFF7CABF002281F03E
:10500C0001014068FFF7B4BF00231A4619464068F7
:10501C00FFF7A6BF00231A4619464068FFF798BF52
:10502C00002211464068FFF78BBF002211464068F2
:10503C00FFF776BF002202214068FFF779BF0023FB
:10504C001A464068FFF764BF024B03225A60024ABB
:10505C001A607047DCE30320805F0D0010B5094C2B
:10506C0000204FF6FF732060A080A0712081638127
:10507C00FFF72AFF2046044A0449BDE8104000F01F
:10508C0021BD00BFE4E30320D0DE0320AF400D00C0
:10509C0010B50446006808B1FFF73EFE204610BD6F
:1050AC0010B5064C002320462360FFF72DFE20464A
:1050BC00034A0449BDE8104000F004BDF0E30320AE
:1050CC00D0DE03209D500D00F8B506460D468F1816
:1050DC000024BD420CD0336815F8011B9B68304688
:1050EC009847002801DB0444F3E7002C08BF044672
:1050FC002046F8BD70B505460C46084649B100F08F
:10510C0095FE2B68024621462846DB68BDE87040B8
:10511C00184770BD03689B68184708B5FFF7EAFF8E
:10512C0008BD38B50D210546FFF7F4FF0A210446EA
:10513C002846FFF7EFFF204438BD38B50546FFF78A
:10514C00D9FF04462846FFF7ECFF204438BDFFF793
:10515C00F4BF30B58BB00B4600218DF82410012A1A
:10516C0098BF0A220DF12304B3FBF2F505FB1233B1
:10517C0003F0FF03092B94BF30333733DBB22146E6
:10518C0004F801392B46002DEED1FFF7B3FF0BB01D
:10519C0030BD0000014B024A1A607047F4E3032053
:1051AC001F600D00024B1A68024B1A60704700BF5B
:1051BC0068DE0320F8E303200021FFF78DBE10B555
:1051CC008368044613B1032201469847204610BD5C
:1051DC0010B50446FFF7F3FF204610BD0348044A00
:1051EC0004490023836000F06DBC00BFFCE3032086
:1051FC00D0DE0320DD510D0008B50C4B33B100F0AF
:10520C0057F903681B699847002809DC084B63B100
:10521C0000F0CCF903681B699847002803DC08BD33
:10522C00AFF30080F2E7AFF3008008BD0000000090
:10523C000000000008B5FFF7DFFFFFF745FD014B4D
:10524C00186008BD30E703200248034A0349121ACC
:10525C0000F0B0BD00F4032004F40320A0620D00A4
:10526C0007B5002300931A466FF07701FFF746FE4F
:10527C0003B05DF804FB000007B543880A2B08D087
:10528C00502B09D1094B1B683BB103B05DF804EB03
:10529C001847FFF7E5FF06E0002300931A466FF06E
:1052AC007701FFF72BFE03B05DF804FB0CE4032041
:1052BC0038B5104C104D2368AB42104B0CBF01227B
:1052CC0000221A7002D0FFF7BFFF2560FFF7F4FC35
:1052DC00044600F083FD0A4B13B12046AFF3008067
:1052EC0000210748FFF764FE00210648BDE838405E
:1052FC00FFF7FABD00F403201E1C279A10E40320CC
:10530C000000000085520D00704710B518210446AE
:10531C0000F0E6FB204610BDF0B5037D062B8DB0EA
:10532C000E4600F104074FF0000402D000F108050E
:10533C0018E00CAD394605F8304D2F232A460A20CB
:10534C00FFF7F2FC284600F071FD33680246DB687B
:10535C002946304698470FE024B12E213046FFF7FE
:10536C00D9FE044415F8011D0A223046FFF7F1FE60
:10537C00BD420444F0D120460DB0F0BD10B5054B34
:10538C000446112240F8043B002100F01EFD20468B
:10539C0010BD00BFC0600D000346074A10B543F8AE
:1053AC00042B01F1100251F8044B43F8044B9142C9
:1053BC00F9D10A781A7010BDC0600D0010B59DF8B7
:1053CC00084044EA032343EA024242EA016104230F
:1053DC004160037510BD37B50D788B784A78C97864
:1053EC0000912946FFF7EAFF03B030BD41747047C6
:1053FC00704708B50021007CFFF74EFD30EA200015
:10540C0028BF4FF0FF3008BD08B50121007CFFF725
:10541C0043FD30EA200028BF4FF0FF3008BD08B52F
:10542C00007CFFF731FD20EAE07008BD08B5007C78
:10543C00FFF722FD20EAE07008BD007CFFF73CBDC1
:10544C0010B51421044600F04BFB204610BD38B5B6
:10545C000446007C0D46FFF717FD002801DC607C3C
:10546C0028B12946207CFFF71FFD20EAE07038BDEB
:10547C0010B50446002363604FF47A73A360054BA8
:10548C00236001230846217463741146FFF7E4FC82
:10549C00204610BDD4600D000022007CFFF7E4BC58
:1054AC0010B514220446002100F08FFC204610BDDC
:1054BC0030B50E4D87B001A8FFF7F2FF296811F047
:1054CC00010410D12846FEF7E4FD60B101AA214683
:1054DC000748FFF7CDFF2846FEF7E0FD054A0649D1
:1054EC00034800F0EFFA024807B030BD14E4032083
:1054FC0018E40320D0DE0320FD530D0070474174E7
:10550C00704708B5007CFFF747FC20EAE07008BD47
:10551C0008B5007CFFF720FC20EAE07008BD08B558
:10552C00007CFFF729FC30EA200028BF4FF0FF3049
:10553C0008BD08B5007CFFF717FC30EA200028BF37
:10554C004FF0FF3008BD007CFFF71EBC10B51421D6
:10555C00044600F0C5FA204610BD70B5457C0446E3
:10556C000E4625B9007CFFF717FC002805DD3146F7
:10557C00207CBDE87040FFF7E7BB284670BD0000FB
:10558C0010B5044608461146002262604FF47A7248
:10559C00A260054A22600122207462741A46FFF749
:1055AC00CBFB204610BD00BF04610D0038B50C4D7F
:1055BC00296811F0010411D12846FEF76AFD68B183
:1055CC00084A094B09482146FFF7DAFF2846FEF73F
:1055DC0065FD074A0749054800F074FA034838BDD1
:1055EC00C4E40320C8E4032040E403202CE403209B
:1055FC00D0DE032009550D007047F8B50646154658
:10560C000C468F18BC4206D0336814F8011B9B68FB
:10561C0030469847F6E72846F8BD0022007CFFF795
:10562C00E3BB0021007CFFF7E7BB0021007CFFF708
:10563C00EBBB0021007CFFF7EFBB0021007CFFF7E8
:10564C00F3BB10B51421044600F04AFA204610BDF5
:10565C0010B50446002363604FF47A73A360044BC7
:10566C002174084623601146FFF7E6FB204610BD67
:10567C0034610D000022007CFFF796BB00231A4614
:10568C001946007CFFF798BB70B50C4686B0142504
:10569C0006462A46002101A800F097FB23788DF8D6
:1056AC00083063680393E36804930022237A307C08
:1056BC00ADF8045001A90593FFF7C6FB06B070BD09
:1056CC001FB500338DF800104FF06401039118BF23
:1056DC000123694601928DF80830FFF7D5FF05B01C
:1056EC005DF804FB0123FFF7EBBF0022007CFFF702
:1056FC006BBBC9B2FFF7F9BF0022007CFFF76CBB94
:10570C000121FFF7F9BF002211464068FFF738BCB2
:10571C00002211464068FFF743BC00224068FFF7A7
:10572C0037BC002281F001014068FFF721BC002347
:10573C001A4601214068FFF713BC00231A4619468C
:10574C004068FFF705BC002211464068FFF7F8BB24
:10575C00002211464068FFF7E3BB0022022140689B
:10576C00FFF7E6BB00231A464068FFF7D1BB38B5FC
:10577C00054688B104684CB1A3681BB103222146CD
:10578C00204698471021204600F0AAF928461421FB
:10579C00BDE8384000F0A4B938BD10B103685B68AF
:1057AC001847704710B503680446BBB15868FFF73B
:1057BC0093FA78B923685A7C12B95868FFF794FAAF
:1057CC0023685868FFF798FA20680023236028B1F3
:1057DC00FFF7CDFF206808B1FFF7C9FF204610BDC9
:1057EC0038B50446D0F8C40108B1FEF750FCD4F823
:1057FC00C00108B1FFF790FAD4F8BC5135B1284676
:10580C00FFF7D0FF0421284600F06AF9206808B1A0
:10581C00FFF7C3FF204638BD10B5044B044640F8D3
:10582C00083BFFF7DDFF204610BD00BF5C610D009B
:10583C0038B50E4C0E4B23600025022304F5E470A2
:10584C006360A560C4F8C451C4F8C851FFF75CFA92
:10585C00084BC4F8CC5184F8D05123602046064A3A
:10586C000649BDE8384000F02DB900BF4CE50320D7
:10587C00C4610D005C610D00D0DE032025580D00C5
:10588C00002211464068FFF75BBB002211464068BE
:10589C00FFF776BB002211464068FFF781BB002260
:1058AC004068FFF775BB002281F001014068FFF7EB
:1058BC005FBB00231A4619464068FFF751BB002313
:1058CC001A4619464068FFF743BB00221146406850
:1058DC00FFF726BB002202214068FFF729BB0023FB
:1058EC001A464068FFF714BB024B04225A60024A66
:1058FC001A60704720E7032090610D0000231A46C0
:10590C004068FFF705BB002202214068FFF710BB7F
:10591C00002211464068FFF703BB00221146406885
:10592C00FFF70EBB00231A4619464068FFF710BB61
:10593C0000231A4619464068FFF712BB002281F07B
:10594C0001014068FFF714BB00224068FFF720BB41
:10595C00002211464068FFF723BB00221146406825
:10596C00FFF70EBB2DE9F043002495B016460D460B
:10597C000746FFF703FD214620220CA8009400F0F7
:10598C0024FA40230C9321466B460CAA3046FFF7B1
:10599C0083F90446002844D1024601216868FFF7C8
:1059AC00CFFA0221804622466868FFF7C9FA009EAA
:1059BC0081462146002E34D0002932D17368022B47
:1059CC0002D00A2B09D02AE0B8F1000F27D0716958
:1059DC0038460431FFF7FFFC20E0B9F1000F1ED070
:1059EC007469112201A800F0F0F906238DF8143027
:1059FC0001AD04F108031834186859682A4603C22B
:105A0C000833A3421546F7D101A906A807ADFFF745
:105A1C00C3FC0FCD3C1D0FC42B6823700121F6690C
:105A2C00C8E70098FFF730F9384615B0BDE8F083A9
:105A3C00024B034A1A6000225A60704728E7032081
:105A4C00C4610D0070B5044614252A46094E002188
:105A5C0000F0BBF9258020253146A560256128463C
:105A6C0000F040F831466060284600F03BF8E060FA
:105A7C00204670BDF0610D0030B50E4D296811F057
:105A8C00010487B013D12846FEF703FB78B101A8B7
:105A9C00FFF7D8FF01AA21460748FFF7D9FD284692
:105AAC00FEF7FCFA054A0649034800F00BF80248D9
:105ABC0007B030BD34E7032038E70320D0DE0320E5
:105ACC0005560D000B460146184600F065B900005E
:105ADC00024B1868BFF35F8F704700BF4CE7032081
:105AEC00FEF7D3BA00F000B810B5002814BF044676
:105AFC0001242046FFF764FA20B9FFF7E9FF08B14B
:105B0C008047F6E710BD0000184B1A68D1075CBF40
:105B1C0001221A60164B1A68D2075CBF01221A6068
:105B2C00144B1A68D0075CBF01221A60124B1A681A
:105B3C00D1075CBF01221A60104B1A68D2075CBFF8
:105B4C0001221A600E4B1A68D0075CBF01221A6042
:105B5C000C4B1A68D1075CBF01221A600A4B1A68F9
:105B6C00D2075CBF01221A60704700BF6CE70320AC
:105B7C0068E7032064E7032060E703205CE7032069
:105B8C0058E7032054E7032050E70320244B1A68FE
:105B9C00D0075CBF01221A60224B1A68D1075CBF88
:105BAC0001221A60204B1A68D2075CBF01221A60CE
:105BBC001E4B1A68D0075CBF01221A601C4B1A6876
:105BCC00D1075CBF01221A601A4B1A68D2075CBF5E
:105BDC0001221A60184B1A68D0075CBF01221A60A8
:105BEC00164B1A68D1075CBF01221A60144B1A6855
:105BFC00D2075CBF01221A60124B1A68D0075CBF37
:105C0C0001221A60104B1A68D1075CBF01221A607E
:105C1C000E4B1A68D2075CBF01221A60704700BF96
:105C2C009CE7032098E7032094E7032090E70320E8
:105C3C008CE7032088E7032084E7032080E7032018
:105C4C007CE7032078E7032074E7032070E7032048
:105C5C00244B1A68D0075CBF01221A60224B1A68C9
:105C6C00D1075CBF01221A60204B1A68D2075CBFB7
:105C7C0001221A601E4B1A68D0075CBF01221A6001
:105C8C001C4B1A68D1075CBF01221A601A4B1A68A8
:105C9C00D2075CBF01221A60184B1A68D0075CBF90
:105CAC0001221A60164B1A68D1075CBF01221A60D8
:105CBC00144B1A68D2075CBF01221A60124B1A6887
:105CCC00D0075CBF01221A60104B1A68D1075CBF69
:105CDC0001221A600E4B1A68D2075CBF01221A60AF
:105CEC00704700BFCCE70320C8E70320C4E70320BC
:105CFC00C0E70320BCE70320B8E70320B4E7032088
:105D0C00B0E70320ACE70320A8E70320A4E70320B7
:105D1C00A0E70320184B1A68D1075CBF01221A6058
:105D2C00164B1A68D2075CBF01221A60144B1A6812
:105D3C00D0075CBF01221A60124B1A68D1075CBFF6
:105D4C0001221A60104B1A68D2075CBF01221A603C
:105D5C000E4B1A68D0075CBF01221A600C4B1A68F4
:105D6C00D1075CBF01221A600A4B1A68D2075CBFCC
:105D7C0001221A60704700BFECE70320E8E703201C
:105D8C00E4E70320E0E70320DCE70320D8E7032067
:105D9C00D4E70320D0E7032010B5054C13462CB1F3
:105DAC000A4601460220AFF3008010BD204610BD0C
:105DBC000000000010B5431E0A44914204D011F8B3
:105DCC00014B03F8014FF8E710BD02440346934220
:105DDC0002D003F8011BFAE77047000038B5124BEC
:105DEC001C68A36B0546D3B91820FFF7E9F843F2FA
:105DFC000E33A06303804AF6CD33438041F2342343
:105E0C0083804EF26D63C3804DF6EC6303810523F2
:105E1C0043810B23838101220023C0E90423A36B5C
:105E2C0000221D615A6138BDCCDE0320034613F8F5
:105E3C00012B002AFBD1181A013870471D400D00A8
:105E4C0059400D0085400D0089400D0000000000F8
:105E5C004D4158333031303520776173206E6F747B
:105E6C0020666F756E642E20506C656173652063BF
:105E7C006865636B20776972696E672F706F7765E1
:105E8C00722E007265643D002C2069723D002C203E
:105E9C0048523D002C20485276616C69643D002CC0
:105EAC002053504F323D002C2053504F3256616CD2
:105EBC0069643D005F5F5F60606061616161616248
:105ECC006262626263636363636363636464646496
:105EDC006464646464646464646464646464646476
:105EEC006363636363636363626262626262616180
:105EFC006161606060605F5F5F5E5E5E5D5D5D5CAA
:105F0C005C5C5B5B5A5A59595958585757565655F9
:105F1C00555454535252515150504F4E4E4D4C4C6F
:105F2C004B4A4A494848474645454443424241400A
:105F3C003F3E3E3D3C3B3A393838373635343332C8
:105F4C0031302F2E2D2C2B2A2928272625242322AD
:105F5C00211F1E1D1C1B1A19171615141311100FB7
:105F6C000E0C0B0A090706050302010000000000D5
:105F7C00000000004B500D0041500D0037500D003B
:105F8C002D500D0021500D0015500D0009500D0025
:105F9C0001500D00F74F0D00ED4F0D0071590D0024
:105FAC00626175640053657269616C005365726956
:105FBC00616C31007479706500706172616D0063A1
:105FCC006D6400696400686E64007374726D0066C1
:105FDC00696C74006C766C0061646448616E646C0E
:105FEC0065720072656D6F766548616E646C657282
:105FFC0000656E756D48616E646C657273004A5312
:10600C004F4E53747265616D4C6F6748616E646C72
:10601C0065720061707000253031307520005D2094
:10602C00002564002C200028293A2000205B006306
:10603C006F6465203D200025690064657461696C9E
:10604C0073203D20000D0A0066006C6E00666E0029
:10605C00636F64650064657461696C006E6F6E6576
:10606C0000747261636500696E666F007761726EB1
:10607C00006572726F720070616E696300616C6CA6
:10608C00005A00252B3033643A25303275002559DF
:10609C002D256D2D25645425483A254D3A2553253B
:1060AC007A0061736374696D650000000000000084
:1060BC000000000025530D0015530D0017530D0063
:1060CC000000000000000000FD530D004D540D00B9
:1060DC005B540D00D5500D0039540D00FF530D00CD
:1060EC0015540D0047540D002B540D00F9530D00A1
:1060FC00000000000000000009550D0059550D006E
:10610C0067550D00D5500D001D550D003F550D0068
:10611C002B550D0053550D000B550D000F550D0053
:10612C00000000000000000005560D004F560D0049
:10613C0027560D0007560D002F560D0037560D0033
:10614C003F560D0047560D000000000000000000F7
:10615C0071570D0067570D005D570D0053570D001B
:10616C0047570D003B570D002F570D0027570D00BB
:10617C001D570D0013570D0071590D000000000044
:10618C0000000000EB580D00E1580D00D7580D0031
:10619C008D580D00CB580D00BF580D00B3580D0095
:1061AC00AB580D00A1580D0097580D0071590D00FA
:1061BC00000000000000000009590D0013590D00EB
:1061CC001D590D0027590D0031590D003D590D0079
:1061DC0049590D0055590D005D590D0067590D00B9
:1061EC0071590D00000000000000000000000000CC
:1061FC000000000000000000000000000000000093
:10620C000000000000000000000000000000000082
:10621C000000000000000000000000000000000072
:10622C000000000000000000000000000000000062
:10623C000000000000000000000000000000000052
:10624C0000000000000000004300000055430D005A
:10625C0099430D00AF480D00914C0D0055500D00A9
:10626C0069500D00AD500D00A1510D00B1510D0044
:10627C00E9510D003D580D00F5580D003D5A0D002B
:10628C00155B0D00995B0D005D5C0D00215D0D0033
:04629C0000000000FE
:0462A00000000000FA
:1062A400AE600D0000000000F4610D0014620D00EA
:1062B40034620D0000000000000000000000000037
:1062C4000000000054620D00000000000000000007
:1062D40000000000000000000000000000000000BA
:1062E40000000000000000000000000000000000AA
:1062F400000000000000000000000000000000009A
:08630400000000006CDE032024
:10630C00FFFFFFFF00000102030405060708090A4E
:10631C000B0C0D0E0F101112131415161718191A49
:08632C001B1C1D1E1F20280090
:046334007856341251
:04000003D000401CCD
:00000001FF
