:02000002D0002C
:1040000000400D00D8640D00000006000C00050102
:084010000401E80500000000B6
:04401800EC5F0D004C
:10401C0009480A49884208B505D0094A824202D0AB
:10402C00121A01F099FF0748074A0021121A01F0F1
:10403C009EFF014808BD00BFD0DC032044640D0086
:10404C003CDD03203CDD0320F0E7032070B501F0DC
:10405C0085F9074C074BE41AA40800251E46A54217
:10406C0004D056F8253098470135F8E770BD00BFED
:10407C0040640D00FC630D0000F014B808B500F0AE
:10408C004BF8BDE8084001F02BB900F0DBBF00F0A5
:10409C00D9BF0078B0FA80F0400970470123037053
:1040AC00704700001FB501F059FA4FF4165101F09A
:1040BC0049FA144B0121187801F058FD124B0121DB
:1040CC00187801F053FD01F0A9FD572301460F4A62
:1040DC000F4800F073FA28B901F040FA0D4901F0CD
:1040EC008CF8FEE7642140F29B124FF480538DE86C
:1040FC000E000748022304223C2100F01EFB05B0F1
:10410C005DF804FBD1DC0320D0DC0320801A060010
:10411C006CE0032000600D002DE9F04F834B844FC1
:10412C00844E642287B01A6000259A46DAF8001093
:10413C00ECB28C4232DA804800F025F918B97E488E
:10414C0000F063F9F7E77C4800F014FA47F8240014
:10415C00794800F01BFA46F82400774800F020F963
:10416C0001F0FCF9754901F02EF801F0F7F90A227B
:10417C0057F8241001F043F801F0F0F9704901F000
:10418C0022F801F0EBF90A22804656F8241001F0CF
:10419C0036F8404601F01BF80135C7E7694E6A4D09
:1041AC006A4C6B4B624A029601950094614800F090
:1041BC0035FC604A00235E495D481944496E19502C
:1041CC00D118496E99500433B3F5967FF3D1614FF2
:1041DC0000F596784FF00009574800F0D4F818B95C
:1041EC00554800F012F9F7E75B4B93F800B05846CE
:1041FC0001F0E6FCB0FA80F14909584601F0C7FC21
:10420C004D4800F0B7F9C8F800004B4800F0BEF973
:10421C003860494800F0C4F801F0A0F9474900F0B3
:10422C00D2FF01F09BF90A22D8F8001000F0E7FF4A
:10423C0001F094F9424900F0C6FF01F08FF90A220F
:10424C00396800F0DCFF01F089F9444900F0BBFF4C
:10425C0001F084F92B68002B834606DA2D21059397
:10426C0000F0AEFF059B594200E019460A22584661
:10427C0000F0C5FF01F072F9394900F0A4FF01F01C
:10428C006DF996F90030002B834606DA2D21059343
:10429C0000F096FF059B594200E019460A22584649
:1042AC0000F0ADFF01F05AF92E4900F08CFF01F03F
:1042BC0055F9274B1B68002B834606DA2D210593F5
:1042CC0000F07EFF059B594200E019460A22584631
:1042DC0000F095FF01F042F9234900F074FF01F062
:1042EC003DF994F90030002B834606DA2D21059315
:1042FC0000F066FF059B594200E019460A22584619
:10430C0000F07DFF09F10409584600F060FFB9F197
:10431C00640F08F1040807F104077FF45DAF8DE822
:10432C0070000B4B024ADAF800103FE768E00320FC
:10433C0040DD0320D8DE03206CE0032033600D0049
:10434C0038600D00A8E00320D0DE0320D4DE03206B
:10435C00ACE0032004E00320D0DC03203E600D0021
:10436C0044600D004F600D0057600D0008B500F063
:10437C0095FC0248BDE8084000F004B86CE003204E
:10438C0000F08CBC704790F8383090F839001B1A4C
:10439C00DBB258B20028BCBF043358B2C0B270476D
:1043AC0008B50246FFF7EFFF30B192F83930013310
:1043BC0003F0030382F8393008BD70B50446006879
:1043CC0016460D4601F0EBF92068036831469B68F0
:1043DC0098470021206801F0E9F90122294620685C
:1043EC0001F0DAF9206803681B69984720B120684E
:1043FC0003685B699847C0B270BD04220179FFF76E
:10440C00DCBF06220179FFF7D8BF2DE9F74304463C
:10441C00FFF7F7FF05462046FFF7EFFF854200F058
:10442C008E80471B4FF057012068667948BF2037B4
:10443C0001F0B9F92068036807219B689847206848
:10444C0001F0B8F97E4306EB46064FF020084FF01A
:10445C000009002E74DD202EC8BF65792068C9BF05
:10446C0005EB4505354698FBF5F35D432A46572188
:10447C00761B01F091F9002DEBDD94F838302068B3
:10448C008DF80790013303F0030384F83830036888
:10449C005B6998478DF80600206803685B6998474C
:1044AC008DF80500206803685B69984794F83830EC
:1044BC008DF80400019A0233C2F3110244F8232050
:1044CC006379012B19D9206803685B6998478DF8CB
:1044DC000600206803685B6998478DF80500206822
:1044EC0003685B69984794F838308DF80400019A9A
:1044FC000633C2F3110244F823206379022B19D935
:10450C00206803685B6998478DF80600206803688B
:10451C005B6998478DF80500206803685B699847CC
:10452C0094F838308DF80400019A0A33C2F3110262
:10453C0044F823206379A3EB83031D449BE70027F6
:10454C00B8B203B0BDE8F08370B505460E4600F076
:10455C00E5FB044600F0E2FB001BB04208D82846FD
:10456C00FFF753FF012804D0012000F07BFEF1E798
:10457C00002070BD10B5FA210446FFF7E5FF20B10D
:10458C0094F83830023354F8230010BD10B5FA21DA
:10459C000446FFF7D9FF20B194F83830063354F8AD
:1045AC00230010BDFF220179FFF707BF10B5FE22D3
:1045BC0001790446FFF701FFA07110BD70B50446E8
:1045CC001646084621601D4601F0B2F831462068B7
:1045DC0001F0AAF825712046FFF7E4FF152804D155
:1045EC002046FFF7E3FF012070BD002070BD70B5C1
:1045FC000446006816461D4601F0D1F82068036891
:10460C0031469B6898472068036829469A6890470A
:10461C002068BDE8704001F0CDB80B460C22017942
:10462C00FFF7E5BF0B460D220179FFF7E0BF0B4604
:10463C000E220179FFF7DBBF0B4610220179FFF741
:10464C00D6BF10B50446017900230422FFF7CFFF33
:10465C002179204600230522FFF7C9FF2179204646
:10466C0000230622BDE81040FFF7C1BF2DE9F04141
:10467C000E4615460A46017904461F46FFF79DFE75
:10468C00284047EA0003324621792046BDE8F04134
:10469C00FFF7ADBF38B5BF22402309210446FFF711
:1046AC00E5FF00F03BFB054600F038FB401B6328A0
:1046BC000AD8092221792046FFF77FFE430603D54D
:1046CC00012000F0CFFDEFE738BD0B46F8220921A1
:1046DC00FFF7CCBF0B469F220A21FFF7C7BF0B4643
:1046EC00E3220A21FFF7C2BF0B46FC220A21FFF787
:1046FC00BDBF0B461F220821FFF7B8BF1023EF22C6
:10470C000821FFF7B3BF01391346032914D8DFE89A
:10471C0001F002040A0CF82203E01B0103F0F00381
:10472C008F22112106E0F82203E01B0103F0F003B5
:10473C008F221221FFF79ABF70472DE9F0471646DA
:10474C0008AD044688461F4695E82006FFF7A2FFF1
:10475C00012E01D1002112E0022E01D120210EE008
:10476C00042E01D140210AE0082E01D1602106E07F
:10477C00102E01D1802102E0202EF3D1A021204661
:10478C00FFF7B7FF2046FFF7B9FF032F01D1072131
:10479C0003E0022F0CBF032102212046FFF795FFF7
:1047AC00BAF5805F677101DA00210BE0BAF5005FA2
:1047BC0001DA202106E0BAF5804F01DA402101E050
:1047CC00F2D160212046FFF785FF632D01DC00212B
:1047DC001EE0C72D01DC04211AE0B5F5C87F01DA13
:1047EC00082115E0B5F5487F01DA0C2110E0B5F58C
:1047FC007A7F01DA10210BE0B5F5C86F01DA1421CC
:10480C0006E0B5F5486F01DA182101E0DFD11C2173
:10481C002046FFF764FFB9F1750F01DC00210EE0B3
:10482C00B9F1D60F01DC012109E0B9F5CD7F01DC2E
:10483C00022104E040F29B139945EFD1032120465D
:10484C00FFF752FF41462046FFF7E7FE4146204660
:10485C00FFF7E8FE41462046FFF7E9FE41462046B9
:10486C00FFF7EAFE012211462046FFF74CFF012F0D
:10487C000CD920238F2211212046FFF7F7FE022F9F
:10488C0004D0032211462046FFF73DFF2046BDE829
:10489C00F047FFF7D6BE00F001BA2DE9F043002433
:1048AC0081460C60012503F1FF3C65452DDA079C20
:1048BC0052F82560A6424FEA850705F1010422DD76
:1048CC00174457F8047CBE421DDD9C42C5EB040E18
:1048DC00274607D052F82400864204F1010801D182
:1048EC004446F2E752F82440A64201DC3D46DCE7A0
:1048FC000C680E2CFADC661C0E6049F824500EF184
:10490C0001046719F2E72746F0E7BDE8F083F0B53C
:10491C00012304468B4211DA54F8046F1A462546DB
:10492C00002A07DD55F8047CBE4203DA45F8047909
:10493C00013AF5E740F822600133EBE7F0BD2DE9D1
:10494C00F043012396460D46734518DA55F8047F5B
:10495C001C4600EB870C2E46002C0CDDDCF80020EE
:10496C0056F8049C904650F82920904503DD46F8F3
:10497C000499013CF0E741F824700133E4E7BDE809
:10498C00F083F8B504461F4610460D460A682146CA
:10499C00FFF7D5FF261F4FF0FF32C7F1000C296837
:1049AC008A4222DA01F18041013201392A6004EB9A
:1049BC0081013046884201D10436F0E750F8043FBB
:1049CC0012B1D6F800E001E04FF0FF3ECEEB03034E
:1049DC00BB4201DC6345EDDAD5F800E00EF10103D2
:1049EC002B60036844F82E30E4E72046BDE8F8401D
:1049FC00FFF78DBFF7B5089F009705460C46FFF7EC
:104A0C004CFF099B2846FFF7BCFF22680A9B9A4281
:104A1C00D4BF2260236003B0F0BD00002DE9F04F3D
:104A2C009FB09346DDF8A4A0DDF8A8900593002272
:104A3C0080460E461346B24204DA58F82210013270
:104A4C000B44F8E78848B3FBF6F20023B342864FD9
:104A5C0006DA58F82310511A40F823100133F5E701
:104A6C003B460021042493E805009D68024415444C
:104A7C000131DA6860292A4492FBF4F243F8042BE2
:104A8C00F1D100231A4657F822100132642A0B4444
:104A9C00F9D193FBF2F31D2B03DD3C2BA8BF3C2378
:104AAC0000E01E23002211460FAD002445F8221011
:104ABC0001320F2AF8D102920422019200936A4A21
:104ACC00642309A92846FFF795FF099B012B16DDE6
:104ADC00012255F8040F55F8041C0132411A934277
:104AEC000C44F6D15A1E94FBF2F440F2DC5292FBC9
:104AFC00F4F40122CAF8004089F8002004E05B4A73
:104B0C00CAF8002089F8004059490022B24209DA5B
:104B1C0058F8220047F822005BF8220041F82200E6
:104B2C000132F3E700220A920B920C920D920E9234
:104B3C009A420DF13C0B0ADB0025013B2E462C461C
:104B4C0004950693DFF828E1DFF81C8118E05BF888
:104B5C00221064297EDC0132EAE758F8227058F8FA
:104B6C002C00C7EB000AA81A00FB0AF090FBF9F026
:104B7C00384458F826703F1A7943C91100292ADCA9
:104B8C00049B069A934243DA5BF804CF5BF8042C3F
:104B9C00C2EB0C090133B9F1030F0493F0DD4FF0B4
:104BAC007F43104619466045D7DA870007972E4F8A
:104BBC0057F820A05345A8BF9A464FEA8003B8BFC8
:104BCC00054653F80E70B942ACBF0F460646534625
:104BDC0001303946E7E7042CD2DC5EF822705EF82F
:104BEC002C00B21AC01B42435EF8260092FBF9F26D
:104BFC001744C71B7B43DB11C2D01EAA02EB840CEB
:104C0C0064225343013493FBF1F14CF8501CB7E789
:104C1C0021460AA86410FFF77AFE012C1EAA4FEA5F
:104C2C0084030BDD02EB84041A4454F8541C52F830
:104C3C00503C02220B4493FBF2F302E0134453F872
:104C4C00503CDA1EB42A05D80A4AD35C059A136084
:104C5C00012303E0059A054B13600023289A137077
:104C6C001FB0BDE8F08F00BFB0E0032019FCFFFFC0
:104C7C0040E2032064600D0000F010B808B5024B50
:104C8C001B689B68019308BD6802030008B5024BC2
:104C9C001B68DB68019308BD6802030008B5024B72
:104CAC001B681B68019308BD2C02030008B5024B5E
:104CBC001B689B68019308BD2C02030008B5024BCE
:104CCC001B68DB68019308BD2C02030008B5024B7E
:104CDC001B681B69019308BD2C02030008B5024B2D
:104CEC001B685B69019308BD2C02030008B5024BDD
:104CFC001B68DB69019308BD3002030008B5024B49
:104D0C001B681B6A019308BD3002030008B5024BF7
:104D1C001B685B68019308BD1802030008B5024BC1
:104D2C001B685B69019308BD1802030008B5024BB0
:104D3C001B689B68019308BD4802030008B5024B31
:104D4C001B681B69019308BD4802030008B5024BA0
:104D5C001B685B69019308BD4802030008B5024B50
:104D6C001B685B6C019308BD4802030008B5024B3D
:104D7C001B689B6C019308BD4802030008B5024BED
:104D8C001B685B69019308BD6402030008B5024B04
:104D9C001B681B68019308BD3C02030008B5024B5D
:104DAC001B68DB68019308BD3C02030008B5024B8D
:104DBC001B681B69019308BD3C02030008B5024B3C
:104DCC001B685B69019308BD3C02030008B5024BEC
:104DDC001B689B69019308BD3C02030008B5024B9C
:104DEC001B68DB69019308BD3C02030008B5024B4C
:104DFC001B681B6A019308BD3C02030008B5024BFB
:104E0C001B689B6A019308BD3C02030008B5024B6A
:104E1C001B681B68019308BD2802030008B5024BF0
:104E2C001B68DB68019308BD2802030008B5024B20
:104E3C001B689B69019308BD2802030008B5024B4F
:104E4C001B68DB69019308BD2802030008B5024BFF
:104E5C001B681B6A019308BD2802030008B5024BAE
:104E6C001B685B6A019308BD2802030008B5024B5E
:104E7C001B689B6A019308BD2802030008B5024B0E
:104E8C001B68DB6A019308BD2802030008B5024BBE
:104E9C001B681B6B019308BD2802030008B5024B6D
:104EAC001B685B6B019308BD2802030008B5024B1D
:104EBC001B681B6C019308BD2802030008B5024B4C
:104ECC001B681B6D019308BD2802030008B5024B3B
:104EDC001B681B68019308BD4C02030008B5024B0C
:104EEC001B685B68019308BD4C02030008B5024BBC
:104EFC001B681B69019308BD4C02030008B5024BEB
:104F0C001B685B69019308BD4C02030008B5024B9A
:104F1C001B689B69019308BD4C02030008B5024B4A
:104F2C001B68DB69019308BD4C02030008B5024BFA
:104F3C001B681B6A019308BD4C02030008B5024BA9
:104F4C001B685B68019308BD2002030008B5024B87
:104F5C001B685B69019308BD2002030008B5034B75
:104F6C001B68D3F88830019308BD000020020300B1
:104F7C0008B5034B1B68D3F89430019308BD0000AF
:104F8C002002030008B5024B1B685B68019308BD47
:104F9C004002030008B5024B1B689B68019308BDD7
:104FAC004002030008B5024B1B68DB68019308BD87
:104FBC004002030008B5024B1B681B69019308BD36
:104FCC004002030008B5024B1B685B69019308BDE6
:104FDC004002030008B5024B1B689B69019308BD96
:104FEC004002030008B5024B1B68DB69019308BD46
:104FFC004002030008B5024B1B681B6A019308BDF5
:10500C004002030008B5024B1B681B6B019308BDE3
:10501C004002030008B5024B1B685B6B019308BD93
:10502C004002030008B5024B1B68DB6B019308BD03
:10503C004402030008B5024B1B681B68019308BDB2
:10504C001C02030008B5024B1B685B68019308BD8A
:10505C001C020300002211464068FFF7CBBF002260
:10506C0011464068FFF7D6BF00224068FFF7CABF61
:10507C00002281F001014068FFF7B4BF00231A46FB
:10508C0019464068FFF7A6BF00231A461946406828
:10509C00FFF798BF002211464068FFF78BBF002234
:1050AC0011464068FFF776BF002202214068FFF7E7
:1050BC0079BF00231A464068FFF764BF024B0322F6
:1050CC005A60024A1A607047D0E3032024610D0035
:1050DC0010B5044601700846FFF708FE0023636014
:1050EC00204610BD0078FFF709BE10B504460068D5
:1050FC0018B1FFF7A7FF0023236010BD10B50446BD
:10510C00FFF7F3FF204610BD10B5094C00204FF6F9
:10511C00FF732060A080A07120816381FFF70EFFD8
:10512C002046044A0449BDE8104000F09DBD00BF74
:10513C00D8E303203CDD032009510D0010B50446D3
:10514C00006808B1FFF712FE204610BD10B5064CE2
:10515C00002320462360FFF701FE2046034A044942
:10516C00BDE8104000F080BDE4E303203CDD0320EB
:10517C0049510D00F8B506460D468F180024BD4266
:10518C000CD0336815F8011B9B68304698470028F3
:10519C0001DB0444F3E7002C08BF04462046F8BDAD
:1051AC0070B505460C46084649B100F011FF2B6856
:1051BC00024621462846DB68BDE87040184770BDA2
:1051CC0003689B68184708B5FFF7EAFF08BD38B5B8
:1051DC000D210546FFF7F4FF0A2104462846FFF788
:1051EC00EFFF204438BD38B50546FFF7D9FF04461C
:1051FC002846FFF7ECFF204438BDFFF7F4BF30B56D
:10520C008BB00B4600218DF82410012A98BF0A227E
:10521C000DF12304B3FBF2F505FB123303F0FF038E
:10522C00092B94BF30333733DBB2214604F80139F4
:10523C002B46002DEED1FFF7B3FF0BB030BD0000B5
:10524C00014B024A1A607047E8E30320C3610D006A
:10525C00024B1A68024B1A60704700BFD4DC032063
:10526C00ECE303200021FFF771BE10B58368044600
:10527C0013B1032201469847204610BD10B50446D1
:10528C00FFF7F3FF204610BD0348044A04490023EE
:10529C00836000F0E9BC00BFF0E303203CDD032099
:1052AC0089520D0008B50C4B33B100F057F9036867
:1052BC001B699847002809DC084B63B100F0D0F952
:1052CC0003681B699847002803DC08BDAFF3008016
:1052DC00F2E7AFF3008008BD000000000000000002
:1052EC0008B5FFF7DFFFFFF719FD014B186008BD8C
:1052FC0030E703200248034A0349121A00F02CBE7F
:10530C0000F4032004F4032040640D0007B50023CF
:10531C0000931A466FF07701FFF72AFE03B05DF891
:10532C0004FB000007B543880A2B08D0502B09D189
:10533C00094B1B683BB103B05DF804EB1847FFF752
:10534C00E5FF06E0002300931A466FF07701FFF7A4
:10535C000FFE03B05DF804FB00E4032038B5104CDD
:10536C00104D2368AB42104B0CBF012200221A7067
:10537C0002D0FFF7BFFF2560FFF7C8FC044600F022
:10538C00FFFD0A4B13B12046AFF300800021074804
:10539C00FFF748FE00210648BDE83840FFF7DEBDA8
:1053AC0000F403201E1C279A04E4032000000000D4
:1053BC0031530D00704710B51821044600F062FC03
:1053CC00204610BDF0B5037D062B8DB00E4600F1C6
:1053DC0004074FF0000402D000F1080518E00CADF2
:1053EC00394605F8304D2F232A460A20FFF7C6FC14
:1053FC00284600F0EDFD33680246DB68294630464E
:10540C0098470FE024B12E213046FFF7D9FE044413
:10541C0015F8011D0A223046FFF7F1FEBD42044487
:10542C00F0D120460DB0F0BD10B5054B044611224D
:10543C0040F8043B002100F09AFD204610BD00BF4F
:10544C0064620D000346074A10B543F8042B01F1C2
:10545C00100251F8044B43F8044B9142F9D10A78ED
:10546C001A7010BD64620D0010B59DF8084044EA36
:10547C00032343EA024242EA0161042341600375BB
:10548C0010BD37B50D788B784A78C97800912946CC
:10549C00FFF7EAFF03B030BD41747047704708B5A1
:1054AC000021007CFFF732FD30EA200028BF4FF0CE
:1054BC00FF3008BD08B50121007CFFF727FD30EA5D
:1054CC00200028BF4FF0FF3008BD08B5007CFFF767
:1054DC0015FD20EAE07008BD08B5007CFFF706FD5D
:1054EC0020EAE07008BD007CFFF720BD10B5142148
:1054FC00044600F0C7FB204610BD38B50446007CBE
:10550C000D46FFF7FBFC002801DC607C28B1294626
:10551C00207CFFF703FD20EAE07038BD10B504468F
:10552C00002363604FF47A73A360054B236001235F
:10553C000846217463741146FFF7C8FC204610BD61
:10554C0078620D000022007CFFF7C8BC10B5142255
:10555C000446002100F00BFD204610BD30B50E4D69
:10556C0087B001A8FFF7F2FF296811F0010410D1F0
:10557C002846FEF78EFD60B101AA21460748FFF7C9
:10558C00CDFF2846FEF78AFD054A0649034800F080
:10559C006BFB024807B030BD08E403200CE4032089
:1055AC003CDD0320A9540D0070474174704708B5C9
:1055BC00007CFFF723FC20EAE07008BD08B5007CF6
:1055CC00FFF7F4FB20EAE07008BD08B5007CFFF79C
:1055DC00FDFB30EA200028BF4FF0FF3008BD08B5B6
:1055EC00007CFFF7EBFB30EA200028BF4FF0FF30C8
:1055FC0008BD007CFFF7F2BB10B51421044600F087
:10560C0041FB204610BD70B5457C04460E4625B9BD
:10561C00007CFFF7F3FB002805DD3146207CBDE85C
:10562C007040FFF7BBBB284670BD000010B50446A8
:10563C0008461146002262604FF47A72A260054A55
:10564C0022600122207462741A46FFF79FFB2046E9
:10565C0010BD00BFA8620D00007CFFF7C7BB0000A7
:10566C0038B50C4D296811F0010411D12846FEF70C
:10567C0010FD68B1084A094B09482146FFF7D6FFCF
:10568C002846FEF70BFD074A0749054800F0ECFADF
:10569C00034838BDB8E40320BCE4032034E4032001
:1056AC0020E403203CDD0320B5550D007047F8B510
:1056BC00064615460C468F18BC4206D0336814F8C3
:1056CC00011B9B6830469847F6E72846F8BD002238
:1056DC00007CFFF7BBBB0021007CFFF7BFBB0021A8
:1056EC00007CFFF7C3BB0021007CFFF7C7BB002188
:1056FC00007CFFF7CBBB10B51421044600F0C2FAB6
:10570C00204610BD10B50446002363604FF47A7335
:10571C00A360044B2174084623601146FFF7C6FBB7
:10572C00204610BDD8620D000022007CFFF76EBB36
:10573C0000231A461946007CFFF770BB70B50C4667
:10574C0086B0142506462A46002101A800F00FFC5D
:10575C0023788DF8083063680393E3680493002280
:10576C00237A307CADF8045001A90593FFF7A6FB12
:10577C0006B070BD1FB500338DF800104FF06401FA
:10578C00039118BF0123694601928DF80830FFF789
:10579C00D5FF05B05DF804FB0123FFF7EBBF00223A
:1057AC00007CFFF743BBC9B2FFF7F9BF0022007CB6
:1057BC00FFF744BB0121FFF7F9BF0021007CFFF785
:1057CC006DBB002211464068FFF714BC0022114645
:1057DC004068FFF71FBC00224068FFF713BC002293
:1057EC0081F001014068FFF7FDBB00231A4601213F
:1057FC004068FFF7EFBB00231A4619464068FFF7D5
:10580C00E1BB002211464068FFF7D4BB00221146D1
:10581C004068FFF7BFBB002202214068FFF7C2BB04
:10582C0000231A464068FFF7ADBB38B5054688B172
:10583C0004684CB1A3681BB103222146204698474B
:10584C001021204600F01EFA28461421BDE83840ED
:10585C0000F018BA38BD10B103685B681847704780
:10586C0010B503680446BBB15868FFF75FFA78B906
:10587C0023685A7C12B95868FFF760FA2368586895
:10588C00FFF764FA20680023236028B1FFF7CDFFEF
:10589C00206808B1FFF7C9FF204610BD38B5044693
:1058AC00D0F8C40108B1FEF7F2FBD4F8C00108B17E
:1058BC00FFF75CFAD4F8BC5135B12846FFF7D0FF9E
:1058CC000421284600F0DEF9206808B1FFF7C3FF79
:1058DC00204638BD10B5044B044640F8083BFFF792
:1058EC00DDFF204610BD00BF00630D0038B50E4C27
:1058FC000E4B23600025022304F5E4706360A56061
:10590C00C4F8C451C4F8C851FFF728FA084BC4F8BE
:10591C00CC5184F8D05123602046064A0649BDE894
:10592C00384000F0A1B900BF40E5032068630D00CA
:10593C0000630D003CDD0320E1580D0000221146F0
:10594C004068FFF737BB002211464068FFF752BB97
:10595C00002211464068FFF75DBB00224068FFF74C
:10596C0051BB002281F001014068FFF73BBB0023D3
:10597C001A4619464068FFF72DBB00231A461946F4
:10598C004068FFF71FBB002211464068FFF702BBBF
:10599C00002202214068FFF705BB00231A4640682D
:1059AC00FFF7F0BA024B04225A60024A1A607047A1
:1059BC0014E7032034630D0000231A464068FFF7F8
:1059CC00E1BA002202214068FFF7ECBA002211462E
:1059DC004068FFF7DFBA002211464068FFF7EABAC9
:1059EC0000231A4619464068FFF7ECBA00231A4602
:1059FC0019464068FFF7EEBA002281F001014068B9
:105A0C00FFF7F0BA00224068FFF7FCBA00221146FB
:105A1C004068FFF7FFBA002211464068FFF7EABA68
:105A2C002DE9F043002495B016460D460746FFF7C6
:105A3C00FBFC214620220CA8009400F098FA40238D
:105A4C000C9321466B460CAA3046FFF71FF904460F
:105A5C00002844D1024601216868FFF7ABFA022105
:105A6C00804622466868FFF7A5FA009E81462146CB
:105A7C00002E34D0002932D17368022B02D00A2BAD
:105A8C0009D02AE0B8F1000F27D0716938460431EB
:105A9C00FFF7F7FC20E0B9F1000F1ED0746911225A
:105AAC0001A800F064FA06238DF8143001AD04F15E
:105ABC0008031834186859682A4603C20833A342ED
:105ACC001546F7D101A906A807ADFFF7BBFC0FCD12
:105ADC003C1D0FC42B6823700121F669C8E70098A0
:105AEC00FFF7CCF8384615B0BDE8F083024B034AFB
:105AFC001A6000225A6070471CE7032068630D008F
:105B0C0070B5184E316811F0010504460AD13046C3
:105B1C00FEF7BFFA30B129461348FFF7D9FA3046E1
:105B2C00FEF7BCFA1048FFF7DDFA28B1A4F10B031D
:105B3C00022B01D8002070BD00F070F8FFF73DFE7D
:105B4C0008B1012CF6D9FFF78BFDFFF785FD18B1D5
:105B5C00A4F10903012BEDD9232C8CBF00200120CB
:105B6C0070BD00BF24E7032028E70320232838B5A5
:105B7C0004460D460AD8FF2908D0FFF7C1FF28B10B
:105B8C0029462046BDE83840FFF790B838BD38B5F7
:105B9C0004460D46FFF792F8FF2810D0062804D8CB
:105BAC004D2323FA00F0C30709D42046FFF7A8FFC2
:105BBC0028B129462046BDE83840FFF787B838BDE4
:105BCC0010B50446FFF77AF80438C0B2012808D99A
:105BDC002046FFF795FF20B12046BDE81040FFF7A7
:105BEC007DB8002010BD000070B5044614252A466F
:105BFC00094E002100F0BBF9258020253146A56017
:105C0C002561284600F040F831466060284600F0D7
:105C1C003BF8E060204670BD94630D0030B50E4D2E
:105C2C00296811F0010487B013D12846FEF731FA28
:105C3C0078B101A8FFF7D8FF01AA21460748FFF762
:105C4C0061FD2846FEF72AFA054A0649034800F08A
:105C5C000BF8024807B030BD34E7032038E70320C7
:105C6C003CDD0320B9560D000B460146184600F0EA
:105C7C0065B90000024B1868BFF35F8F704700BF17
:105C8C004CE70320FEF701BA00F000B810B500286D
:105C9C0014BF044601242046FFF7CCF920B9FFF7C6
:105CAC00E9FF08B18047F6E710BD0000184B1A68F1
:105CBC00D1075CBF01221A60164B1A68D2075CBF71
:105CCC0001221A60144B1A68D0075CBF01221A60BB
:105CDC00124B1A68D1075CBF01221A60104B1A686C
:105CEC00D2075CBF01221A600E4B1A68D0075CBF4A
:105CFC0001221A600C4B1A68D1075CBF01221A6092
:105D0C000A4B1A68D2075CBF01221A60704700BFA9
:105D1C006CE7032068E7032064E7032060E70320B7
:105D2C005CE7032058E7032054E7032050E70320E7
:105D3C00244B1A68D0075CBF01221A60224B1A68E8
:105D4C00D1075CBF01221A60204B1A68D2075CBFD6
:105D5C0001221A601E4B1A68D0075CBF01221A6020
:105D6C001C4B1A68D1075CBF01221A601A4B1A68C7
:105D7C00D2075CBF01221A60184B1A68D0075CBFAF
:105D8C0001221A60164B1A68D1075CBF01221A60F7
:105D9C00144B1A68D2075CBF01221A60124B1A68A6
:105DAC00D0075CBF01221A60104B1A68D1075CBF88
:105DBC0001221A600E4B1A68D2075CBF01221A60CE
:105DCC00704700BF9CE7032098E7032094E703206B
:105DDC0090E703208CE7032088E7032084E7032067
:105DEC0080E703207CE7032078E7032074E7032097
:105DFC0070E70320244B1A68D0075CBF01221A609D
:105E0C00224B1A68D1075CBF01221A60204B1A681A
:105E1C00D2075CBF01221A601E4B1A68D0075CBF08
:105E2C0001221A601C4B1A68D1075CBF01221A6050
:105E3C001A4B1A68D2075CBF01221A60184B1A68F9
:105E4C00D0075CBF01221A60164B1A68D1075CBFE1
:105E5C0001221A60144B1A68D2075CBF01221A6027
:105E6C00124B1A68D0075CBF01221A60104B1A68DB
:105E7C00D1075CBF01221A600E4B1A68D2075CBFB7
:105E8C0001221A60704700BFCCE70320C8E703204B
:105E9C00C4E70320C0E70320BCE70320B8E70320D6
:105EAC00B4E70320B0E70320ACE70320A8E7032006
:105EBC00A4E70320A0E70320184B1A68D1075CBFA6
:105ECC0001221A60164B1A68D2075CBF01221A60B5
:105EDC00144B1A68D0075CBF01221A60124B1A6867
:105EEC00D1075CBF01221A60104B1A68D2075CBF45
:105EFC0001221A600E4B1A68D0075CBF01221A608F
:105F0C000C4B1A68D1075CBF01221A600A4B1A6845
:105F1C00D2075CBF01221A60704700BFECE7032078
:105F2C00E8E70320E4E70320E0E70320DCE70320B5
:105F3C00D8E70320D4E70320D0E7032010B5054CA5
:105F4C0013462CB10A4601460220AFF3008010BD67
:105F5C00204610BD0000000010B5431E0A449142BB
:105F6C0004D011F8014B03F8014FF8E710BD0244BF
:105F7C000346934202D003F8011BFAE77047000076
:105F8C0038B5124B1C68A36B0546D3B91820FFF724
:105F9C0051F843F20E33A06303804AF6CD334380AD
:105FAC0041F2342383804EF26D63C3804DF6EC6373
:105FBC000381052343810B23838101220023C0E944
:105FCC000423A36B00221D615A6138BD38DD032008
:105FDC00034613F8012B002AFBD1181A013870471D
:105FEC001D400D0059400D0085400D0089400D00ED
:105FFC00000000004D41583330313035207761734B
:10600C00206E6F7420666F756E642E20506C656107
:10601C00736520636865636B20776972696E672F9F
:10602C00706F7765722E007265643D002C2069726A
:10603C003D002C2048523D002C20485276616C6962
:10604C00643D002C2053504F323D002C2053504FB8
:10605C003256616C69643D005F5F5F6060606161D6
:10606C0061616162626262626363636363636363FF
:10607C0064646464646464646464646464646464D4
:10608C0064646464636363636363636362626262D4
:10609C00626261616161606060605F5F5F5E5E5EF5
:1060AC005D5D5D5C5C5C5B5B5A5A5959595858573D
:1060BC0057565655555454535252515150504F4EA9
:1060CC004E4D4C4C4B4A4A4948484746454544433B
:1060DC00424241403F3E3E3D3C3B3A3938383736F0
:1060EC003534333231302F2E2D2C2B2A29282726CC
:1060FC0025242322211F1E1D1C1B1A1917161514CB
:10610C001311100F0E0C0B0A0907060503020100F0
:10611C000000000000000000BF500D00B5500D0045
:10612C00AB500D00A1500D0095500D0089500D0085
:10613C007D500D0075500D006B500D0061500D0021
:10614C002D5A0D00626175640053657269616C00B3
:10615C0053657269616C310074797065007061729D
:10616C00616D00636D6400696400686E6400737433
:10617C00726D0066696C74006C766C0061646448C6
:10618C00616E646C65720072656D6F766548616EE8
:10619C00646C657200656E756D48616E646C6572D9
:1061AC0073004A534F4E53747265616D4C6F674860
:1061BC00616E646C657200617070002530313075F1
:1061CC0020005D20002564002C200028293A2000A6
:1061DC00205B00636F6465203D20002569006465C9
:1061EC007461696C73203D20000D0A0066006C6EB2
:1061FC0000666E00636F64650064657461696C00B1
:10620C006E6F6E6500747261636500696E666F0017
:10621C007761726E006572726F720070616E696385
:10622C0000616C6C005A00252B3033643A253032F7
:10623C00750025592D256D2D25645425483A254D7D
:10624C003A2553257A0061736374696D650000000B
:10625C000000000000000000D1530D00C1530D00E0
:10626C00C3530D000000000000000000A9540D00F5
:10627C00F9540D0007550D0081510D00E5540D002A
:10628C00AB540D00C1540D00F3540D00D7540D0048
:10629C00A5540D000000000000000000B5550D00D5
:1062AC0005560D0013560D0081510D00C9550D00FA
:1062BC00EB550D00D7550D00FF550D00B7550D00D2
:1062CC00BB550D000000000000000000B9560D0089
:1062DC0003570D00DB560D00BB560D00E3560D00A9
:1062EC00EB560D00F3560D00FB560D0000000000A0
:1062FC00000000002D580D0023580D0019580D00FA
:10630C000F580D0003580D00F7570D00EB570D00FB
:10631C00E3570D00D9570D00CF570D002D5A0D0026
:10632C000000000000000000A7590D009D590D0051
:10633C0093590D0049590D0087590D007B590D00DB
:10634C006F590D0067590D005D590D0053590D0023
:10635C002D5A0D000000000000000000C5590D0072
:10636C00CF590D00D9590D00E3590D00ED590D0011
:10637C00F9590D00055A0D00115A0D00195A0D004E
:10638C00235A0D002D5A0D000000000000000000E3
:10639C0000000000000000000000000000000000F1
:1063AC0000000000000000000000000000000000E1
:1063BC0000000000000000000000000000000000D1
:1063CC0000000000000000000000000000000000C1
:1063DC0000000000000000000000000000000000B1
:1063EC00000000000000000000000000430000005E
:1063FC0079430D008D430D00A3480D00854C0D0015
:10640C00C9500D0015510D0059510D004D520D0084
:10641C005D520D0095520D00F9580D00B1590D004B
:10642C00F95A0D00B95C0D003D5D0D00015E0D00CB
:04643C00C55E0D002C
:046440000000000058
:106444000D0B000052620D000000000098630D0067
:10645400B8630D00D8630D000000000000000000C8
:106464000000000000000000F8630D0000000000C0
:106474000000000000000000000000000000000018
:106484000000000000000000000000000000000008
:1064940000000000000000000000000000000000F8
:0C64A4000000000000000000D8DC032015
:1064B000FFFFFFFF00000102030405060708090AA9
:1064C0000B0C0D0E0F101112131415161718191AA4
:0864D0001B1C1D1E1F202800EB
:0464D80078563412AC
:04000003D000401CCD
:00000001FF
