:02000002D0002C
:1040000000400D00E86A0D00000006000C000501EC
:084010000401E80500000000B6
:0440180054660D00DD
:10401C0009480A49884208B505D0094A824202D0AB
:10402C00121A02F0CDFA0748074A0021121A02F0C0
:10403C00D2FA014808BD00BFBCE20320546A0D004F
:10404C0028E3032028E30320F0E7032070B501F0F8
:10405C0035F8074C074BE41AA40800251E46A54268
:10406C0004D056F8253098470135F8E770BD00BFED
:10407C00506A0D000C6A0D0000F01CB808B500F079
:10408C005DF8BDE8084000F0DBBF00F0DBBD00F0E0
:10409C00D9BD0078B0FA80F0400970470123037055
:1040AC00704710B50446006808B100F0CBFD2046FF
:1040BC0010BD00001FB501F001F94FF4165101F0CD
:1040CC00F1F801F0FBF8184900F071FE01F0DAFB91
:1040DC0057230146154A164800F09EFA28B901F0FC
:1040EC00EDF8144900F063FEFEE701F0E7F8124921
:1040FC0000F05DFE4FF4C87140F29B124FF48053F8
:10410C008DE80E000A48032304221F2100F043FB14
:10411C000A21074800F0AFFA0548002105B05DF808
:10412C0004EB00F0B2BA00BF68660D00801A0600FE
:10413C003CE3032078660D00AC660D002DE9F843D6
:10414C004748484F484E00F04FFA0446054600F0E9
:10415C0003F9002840D0DFF8389100F0EFFBD9F8D4
:10416C000030C3EB000800F0E9FBC9F80000404642
:10417C0001F06AFE00223D4B01F0F6FF02460B46B1
:10418C0000203B4901F0F0FF02F0BCF99FED397AB9
:10419C00386007EE900AF4EEC77AF1EE10FA1BD5F0
:1041AC00B3EE047AF4EEC77AF1EE10FA14DD32486D
:1041BC0032490378FCEEE77A17EE902ACA540133A1
:1041CC0003F003034A7803700B7813448A78134482
:1041DC00CA7813449B10336001F070F8284900F042
:1041EC00D3FD01F06BF8002C804603DA2D2100F092
:1041FC00CFFD64420A222146404600F0E2FD01F068
:10420C005DF8204900F0C0FD01F058F897ED000A68
:10421C00022100F0B5FE01F051F81B4900F0B4FD8D
:10422C0001F04CF83468002C074604DA2D2100F01C
:10423C00AFFD614200E021460A22384600F0C1FD84
:10424C004CF24F339D4204DC01F038F80F4900F07A
:10425C009BFD01F033F8BDE8F84300F09CBD00BFB6
:10426C003CE3032080E303202CE3032000408F4039
:10427C0000004E4000007F4384E303207CE30320D6
:10428C00E8660D00EC660D00F3660D00FE660D0091
:10429C0078E3032010B50C4C00F040FB00232360A6
:1042AC00A380A371238102204FF6FF73638100F07A
:1042BC0045FC2046054A064901F00AFB0548BDE8C5
:1042CC00104000F0B3B800BF30E3032028E3032014
:1042DC00AF400D003CE303200368C3EBC13103EB9B
:1042EC002113036043F3CF30704700002DE9F041F8
:1042FC00164D17492B78DFF85CC021F81300A3F199
:10430C000B0202F01F02A3F1160E31F9120000226B
:10431C0000030EEB02049E1A04F01F0406F01F06A5
:10432C0031F8148031F816403CF9127044440132D3
:10433C0024B20B2A07FB0400EBD1013303F01F035B
:10434C002B7040F3CF30BDE8F08100BF94E3032025
:10435C0098E303200A670D00F8B5294D294C2B88EA
:10436C00238082B211462848FFF7B6FF274B1880EE
:10437C00101A00B2FFF7BAFFB4F900202880002A07
:10438C00234C24491ADA030418D4234E234DB6F9CE
:10439C0000302B80224D234FB5F900503D805B1B24
:1043AC00153B012740F2D235AB4227804FF0000776
:1043BC000F8037808CBF0023012300E00023002AEC
:1043CC0007DD002805DC01260E80154E0025258012
:1043DC003580B4F900409042D4BF002404F00104AD
:1043EC000CB10D4C2080B1F900109042ACBF0022F2
:1043FC0001F001020AB10A4A10801846F8BD00BF4C
:10440C0090E3032092E303208CE30320DAE3032000
:10441C00D8E3032096E3032088E30320BEE20320C5
:10442C0086E30320BCE2032000F078BA704770B535
:10443C000446006816460D4601F05DF820680368D6
:10444C0031469B6898470021206801F05BF80122F7
:10445C002946206801F04CF8206803681B699847CE
:10446C0020B1206803685B699847C0B270BD042214
:10447C000179FFF7DCBF06220179FFF7D8BF2DE9E0
:10448C00F7430446FFF7F7FF05462046FFF7EFFF1B
:10449C00854200F08E80471B4FF0570120686679EB
:1044AC0048BF203701F02BF82068036807219B6870
:1044BC009847206801F02AF87E4306EB46064FF039
:1044CC0020084FF00009002E74DD202EC8BF65793E
:1044DC002068C9BF05EB4505354698FBF5F35D43F0
:1044EC002A465721761B01F003F8002DEBDD94F8DA
:1044FC00383020688DF80790013303F0030384F8FB
:10450C00383003685B6998478DF8060020680368AB
:10451C005B6998478DF80500206803685B699847CC
:10452C0094F838308DF80400019A0233C2F311026A
:10453C0044F823206379012B19D9206803685B693F
:10454C0098478DF80600206803685B6998478DF8DA
:10455C000500206803685B69984794F838308DF83B
:10456C000400019A0633C2F3110244F82320637944
:10457C00022B19D9206803685B6998478DF80600EF
:10458C00206803685B6998478DF80500206803680C
:10459C005B69984794F838308DF80400019A0A3317
:1045AC00C2F3110244F823206379A3EB83031D4467
:1045BC009BE70027B8B203B0BDE8F08370B50546A1
:1045CC000E4600F0BBF9044600F0B8F9001BB042EF
:1045DC0008D82846FFF753FF012804D0012000F02B
:1045EC00F1FCF1E7002070BD10B5FA210446FFF78D
:1045FC00E5FF20B194F83830063354F8230010BD91
:10460C00FF220179FFF713BF10B5FE220179044692
:10461C00FFF70DFFA07110BD70B504461646084695
:10462C0021601D4600F030FF3146206800F028FF65
:10463C0025712046FFF7E4FF152804D12046FFF72B
:10464C00E3FF012070BD002070BD70B5044600680A
:10465C0016461D4600F04FFF2068036831469B68E4
:10466C0098472068036829469A6890472068BDE8F7
:10467C00704000F04BBF0B460C220179FFF7E5BFF1
:10468C000B460D220179FFF7E0BF0B460E22017994
:10469C00FFF7DBBF0B4610220179FFF7D6BF10B531
:1046AC000446017900230422FFF7CFFF217920462D
:1046BC0000230522FFF7C9FF21792046002306229B
:1046CC00BDE81040FFF7C1BF2DE9F0410E4615467D
:1046DC000A46017904461F46FFF7A9FE284047EA1F
:1046EC000003324621792046BDE8F041FFF7ADBF0B
:1046FC0038B5BF22402309210446FFF7E5FF00F03F
:10470C001DF9054600F01AF9401B63280AD8092246
:10471C0021792046FFF78BFE430603D5012000F0DC
:10472C0051FCEFE738BD0B46F8220921FFF7CCBF4F
:10473C000B469F220A21FFF7C7BF0B46E3220A2133
:10474C00FFF7C2BF0B46FC220A21FFF7BDBF0B4689
:10475C001F220821FFF7B8BF1023EF220821FFF713
:10476C00B3BF01391346032914D8DFE801F0020462
:10477C000A0CF82203E01B0103F0F0038F22112135
:10478C0006E0F82203E01B0103F0F0038F22122154
:10479C00FFF79ABF70472DE9F047164608AD04465F
:1047AC0088461F4695E82006FFF7A2FF012E01D18F
:1047BC00002112E0022E01D120210EE0042E01D1A5
:1047CC0040210AE0082E01D1602106E0102E01D113
:1047DC00802102E0202EF3D1A0212046FFF7B7FF65
:1047EC002046FFF7B9FF032F01D1072103E0022F69
:1047FC000CBF032102212046FFF795FFBAF5805F1D
:10480C00677101DA00210BE0BAF5005F01DA2021B3
:10481C0006E0BAF5804F01DA402101E0F2D16021C7
:10482C002046FFF785FF632D01DC00211EE0C72D1C
:10483C0001DC04211AE0B5F5C87F01DA082115E086
:10484C00B5F5487F01DA0C2110E0B5F57A7F01DA75
:10485C0010210BE0B5F5C86F01DA142106E0B5F5AF
:10486C00486F01DA182101E0DFD11C212046FFF747
:10487C0064FFB9F1750F01DC00210EE0B9F1D60F20
:10488C0001DC012109E0B9F5CD7F01DC022104E056
:10489C0040F29B139945EFD103212046FFF752FFBD
:1048AC0041462046FFF7E7FE41462046FFF7E8FE6B
:1048BC0041462046FFF7E9FE41462046FFF7EAFE57
:1048CC00012211462046FFF74CFF012F0CD9202363
:1048DC008F2211212046FFF7F7FE022F04D003226E
:1048EC0011462046FFF73DFF2046BDE8F047FFF795
:1048FC00D6BE00F013B800F011B8000008B5024B9A
:10490C001B689B68019308BD6802030008B5024B45
:10491C001B68DB68019308BD6802030008B5024BF5
:10492C001B681B68019308BD2C02030008B5024BE1
:10493C001B685B68019308BD1802030008B5024BA5
:10494C001B685B69019308BD1802030008B5024B94
:10495C001B689B68019308BD4802030008B5024B15
:10496C001B681B69019308BD4802030008B5024B84
:10497C001B685B69019308BD4802030008B5024B34
:10498C001B685B6C019308BD4802030008B5024B21
:10499C001B689B6C019308BD4802030008B5024BD1
:1049AC001B685B69019308BD6402030008B5024BE8
:1049BC001B681B68019308BD3C02030008B5024B41
:1049CC001B68DB68019308BD3C02030008B5024B71
:1049DC001B681B69019308BD3C02030008B5024B20
:1049EC001B685B69019308BD3C02030008B5024BD0
:1049FC001B689B69019308BD3C02030008B5024B80
:104A0C001B68DB69019308BD3C02030008B5024B2F
:104A1C001B689B6A019308BD3C02030008B5024B5E
:104A2C001B681B68019308BD2802030008B5024BE4
:104A3C001B68DB68019308BD2802030008B5024B14
:104A4C001B689B69019308BD2802030008B5024B43
:104A5C001B68DB69019308BD2802030008B5024BF3
:104A6C001B681B6A019308BD2802030008B5024BA2
:104A7C001B685B6A019308BD2802030008B5024B52
:104A8C001B689B6A019308BD2802030008B5024B02
:104A9C001B68DB6A019308BD2802030008B5024BB2
:104AAC001B681B6B019308BD2802030008B5024B61
:104ABC001B681B6C019308BD2802030008B5024B50
:104ACC001B681B6D019308BD2802030008B5024B3F
:104ADC001B681B68019308BD4C02030008B5024B10
:104AEC001B685B68019308BD4C02030008B5024BC0
:104AFC001B681B69019308BD4C02030008B5024BEF
:104B0C001B685B69019308BD4C02030008B5024B9E
:104B1C001B689B69019308BD4C02030008B5024B4E
:104B2C001B68DB69019308BD4C02030008B5024BFE
:104B3C001B681B6A019308BD4C02030008B5024BAD
:104B4C001B685B68019308BD2002030008B5024B8B
:104B5C001B685B69019308BD2002030008B5034B79
:104B6C001B68D3F88830019308BD000020020300B5
:104B7C0008B5034B1B68D3F89430019308BD0000B3
:104B8C002002030008B5024B1B685B68019308BD4B
:104B9C004002030008B5024B1B689B68019308BDDB
:104BAC004002030008B5024B1B68DB68019308BD8B
:104BBC004002030008B5024B1B681B69019308BD3A
:104BCC004002030008B5024B1B685B69019308BDEA
:104BDC004002030008B5024B1B689B69019308BD9A
:104BEC004002030008B5024B1B68DB69019308BD4A
:104BFC004002030008B5024B1B681B6A019308BDF9
:104C0C004002030008B5024B1B681B6B019308BDE7
:104C1C004002030008B5024B1B685B6B019308BD97
:104C2C004002030008B5024B1B68DB6B019308BD07
:104C3C004402030008B5024B1B681B68019308BDB6
:104C4C001C02030008B5024B1B685B68019308BD8E
:104C5C001C020300002211464068FFF7CBBF002264
:104C6C0011464068FFF7D6BF00224068FFF7CABF65
:104C7C00002281F001014068FFF7B4BF00231A46FF
:104C8C0019464068FFF7A6BF00231A46194640682C
:104C9C00FFF798BF002211464068FFF78BBF002238
:104CAC0011464068FFF776BF002202214068FFF7EB
:104CBC0079BF00231A464068FFF764BF024B0322FA
:104CCC005A60024A1A607047DCE303202C670D001F
:104CDC0010B5094C00204FF6FF732060A080A07126
:104CEC0020816381FFF72AFF2046044A0449BDE86E
:104CFC00104000F0EDBD00BFE4E3032028E30320E7
:104D0C00AF400D0010B50446006808B1FFF73EFE39
:104D1C00204610BD10B5064C002320462360FFF73B
:104D2C002DFE2046034A0449BDE8104000F0D0BDDA
:104D3C00F0E3032028E30320114D0D00F8B50646DF
:104D4C000D468F180024BD420CD0336815F8011B9A
:104D5C009B6830469847002801DB0444F3E7002C9D
:104D6C0008BF04462046F8BD70B505460C460846FB
:104D7C0049B101F061FC2B68024621462846DB68EC
:104D8C00BDE87040184770BD08B5FFF7EDFF08BDD2
:104D9C0003689B68184738B50D210546FFF7F8FFE7
:104DAC000A2104462846FFF7F3FF204438BD38B5E6
:104DBC000546FFF7D9FF04462846FFF7ECFF2044D1
:104DCC0038BD30B58BB00B4600218DF82410012A6C
:104DDC0098BF0A220DF12304B3FBF2F505FB123345
:104DEC0003F0FF03092B94BF30333733DBB221467A
:104DFC0004F801392B46002DEED1FFF7B5FF0BB0AF
:104E0C0030BD00002DE9F04757EC106B82460D4683
:104E1C0010EE102A3B4610EE100A394601F014FB36
:104E2C0008B14E4912E027F000494FF0FF324C4BCD
:104E3C003046494601F008FB68B94FF0FF32484B49
:104E4C003046494601F0E2FA28B946495046FFF788
:104E5C008BFFBDE8F0874FF06042434B304639463C
:104E6C0001F0E8FA08B14149F0E74FF06042404BDD
:104E7C003046394601F0C0FA0028F4D10022002354
:104E8C003046394601F0B8FA40B12D215046FFF7B3
:104E9C007FFF07F1004304461F4600E004463549F6
:104EAC004FF0000800205FFA88F39D4206D90022DB
:104EBC00314B01F059F908F10108F4E732463B4651
:104ECC0000F076FE0F46064601F0FCFA0A22014677
:104EDC0080465046FFF775FF0444E5B3404600F0AA
:104EEC00A3FF02460B463046394600F05FFE0646ED
:104EFC000F4650462149FFF737FF044400221E4B52
:104F0C003046394601F006F806460F4601F0B2FA73
:104F1C00B0F1000907DA2D215046FFF739FFC9F12E
:104F2C000001804602E049464FF000080A22504634
:104F3C00FFF747FF40440444484600F085FF024613
:104F4C000B463046394600F031FE013D15F0FF05A9
:104F5C0006460F46D2D12046BDE8F08758670D00B3
:104F6C00FFFFEF7F60670D00FFFFEF415C670D00F7
:104F7C00FFFFEFC10000E03F0000244076660D000B
:104F8C0038B5044610EE100ACDB200F06FFF41ECBC
:104F9C00100B29462046BDE83840FFF733BF000010
:104FAC00014B024A1A607047F4E30320D7670D00E7
:104FBC00024B1A68024B1A60704700BFC0E2032014
:104FCC00F8E303200021FFF7C1BD10B58368044648
:104FDC0013B1032201469847204610BD10B5044674
:104FEC00FFF7F3FF204610BD0348044A0449002391
:104FFC00836000F06DBC00BFFCE3032028E30320BA
:10500C00E94F0D0008B50C4B33B100F057F90368AC
:10501C001B699847002809DC084B63B100F0CCF9F8
:10502C0003681B699847002803DC08BDAFF30080B8
:10503C00F2E7AFF3008008BD0000000000000000A4
:10504C0008B5FFF7DFFFFFF779FC014B186008BDCF
:10505C0030E703200248034A0349121A01F0B0BAA0
:10506C0000F4032004F40320506A0D0007B500235C
:10507C0000931A466FF07701FFF77AFD03B05DF8E5
:10508C0004FB000007B543880A2B08D0502B09D12C
:10509C00094B1B683BB103B05DF804EB1847FFF7F5
:1050AC00E5FF06E0002300931A466FF07701FFF747
:1050BC005FFD03B05DF804FB0CE4032038B5104C25
:1050CC00104D2368AB42104B0CBF012200221A700A
:1050DC0002D0FFF7BFFF2560FFF728FC044601F064
:1050EC0083FA0A4B13B12046AFF300800021074826
:1050FC00FFF798FD00210648BDE83840FFF72EBDAC
:10510C0000F403201E1C279A10E40320000000006A
:10511C0091500D00704710B51821044600F0E6FBC5
:10512C00204610BDF0B5037D062B8DB00E4600F168
:10513C0004074FF0000402D000F1080518E00CAD94
:10514C00394605F8304D2F232A460A20FFF726FC56
:10515C00284601F071FA33680246DB68294630466E
:10516C0098470FE024B12E213046FFF711FE04447E
:10517C0015F8011D0A223046FFF723FEBD420444F8
:10518C00F0D120460DB0F0BD10B5054B04461122F0
:10519C0040F8043B002101F01EFA204610BD00BF70
:1051AC0074680D000346074A10B543F8042B01F14F
:1051BC00100251F8044B43F8044B9142F9D10A7890
:1051CC001A7010BD74680D0010B59DF8084044EAC3
:1051DC00032343EA024242EA01610423416003755E
:1051EC0010BD37B50D788B784A78C978009129466F
:1051FC00FFF7EAFF03B030BD41747047704708B544
:10520C000021007CFFF782FC30EA200028BF4FF021
:10521C00FF3008BD08B50121007CFFF777FC30EAB0
:10522C00200028BF4FF0FF3008BD08B5007CFFF709
:10523C0065FC20EAE07008BD08B5007CFFF756FC61
:10524C0020EAE07008BD007CFFF770BC10B514219B
:10525C00044600F04BFB204610BD38B50446007CDC
:10526C000D46FFF74BFC002801DC607C28B1294679
:10527C00207CFFF753FC20EAE07038BD10B50446E3
:10528C00002363604FF47A73A360054B2360012302
:10529C000846217463741146FFF718FC204610BDB4
:1052AC0088680D000022007CFFF718BC10B5142292
:1052BC000446002101F08FF9204610BD30B50E4D8B
:1052CC0087B001A8FFF7F2FF296811F0010410D193
:1052DC002846FEF7DEFE60B101AA21460748FFF71B
:1052EC00CDFF2846FEF7DAFE054A0649034800F0D2
:1052FC00EFFA024807B030BD14E4032018E4032091
:10530C0028E3032009520D0070474174704708B51B
:10531C00007CFFF77BFB20EAE07008BD08B5007C41
:10532C00FFF754FB20EAE07008BD08B5007CFFF7DE
:10533C005DFB30EA200028BF4FF0FF3008BD08B5F8
:10534C00007CFFF74BFB30EA200028BF4FF0FF300A
:10535C0008BD007CFFF752BB10B51421044600F0C9
:10536C00C5FA204610BD70B5457C04460E4625B9DD
:10537C00007CFFF74BFB002805DD3146207CBDE8A7
:10538C007040FFF71BBB284670BD000010B50446EB
:10539C0008461146002262604FF47A72A260054AF8
:1053AC0022600122207462741A46FFF7FFFA20462D
:1053BC0010BD00BFB8680D0038B50C4D296811F050
:1053CC00010411D12846FEF764FE68B1084A094B66
:1053DC0009482146FFF7DAFF2846FEF75FFE074A29
:1053EC000749054800F074FA034838BDC4E40320AB
:1053FC00C8E4032040E403202CE4032028E303202A
:10540C0015530D007047F8B5064615460C468F1817
:10541C00BC4206D0336814F8011B9B683046984791
:10542C00F6E72846F8BD0022007CFFF717BB0021E9
:10543C00007CFFF71BBB0021007CFFF71FBB00218A
:10544C00007CFFF723BB0021007CFFF727BB10B5C6
:10545C001421044600F04AFA204610BD10B504464B
:10546C00002363604FF47A73A360044B21740846E5
:10547C0023601146FFF71AFB204610BDE8680D00AB
:10548C000022007CFFF7CABA00231A461946007C9A
:10549C00FFF7CCBA70B50C4686B0142506462A46E2
:1054AC00002101A801F097F823788DF80830636883
:1054BC000393E36804930022237A307CADF8045004
:1054CC0001A90593FFF7FAFA06B070BD1FB50033BA
:1054DC008DF800104FF06401039118BF0123694649
:1054EC0001928DF80830FFF7D5FF05B05DF804FB8D
:1054FC000123FFF7EBBF0022007CFFF79FBAC9B274
:10550C00FFF7F9BF0022007CFFF7A0BA0121FFF7DB
:10551C00F9BF002211464068FFF76CBB0022114610
:10552C004068FFF777BB00224068FFF76BBB002297
:10553C0081F001014068FFF755BB00231A46012199
:10554C004068FFF747BB00231A4619464068FFF72F
:10555C0039BB002211464068FFF72CBB00221146D4
:10556C004068FFF717BB002202214068FFF71ABB07
:10557C0000231A464068FFF705BB38B5054688B1CD
:10558C0004684CB1A3681BB10322214620469847FE
:10559C001021204600F0AAF928461421BDE8384015
:1055AC0000F0A4B938BD10B103685B6818477047A8
:1055BC0010B503680446BBB15868FFF7C7F978B952
:1055CC0023685A7C12B95868FFF7C8F923685868E1
:1055DC00FFF7CCF920680023236028B1FFF7CDFF3B
:1055EC00206808B1FFF7C9FF204610BD38B5044646
:1055FC00D0F8C40108B1FEF74AFDD4F8C00108B1D7
:10560C00FFF7C4F9D4F8BC5135B12846FFF7D0FFE9
:10561C000421284600F06AF9206808B1FFF7C3FF9F
:10562C00204638BD10B5044B044640F8083BFFF744
:10563C00DDFF204610BD00BF10690D0038B50E4CC3
:10564C000E4B23600025022304F5E4706360A56013
:10565C00C4F8C451C4F8C851FFF790F9084BC4F80A
:10566C00CC5184F8D05123602046064A0649BDE847
:10567C00384000F02DB900BF4CE5032078690D00CF
:10568C0010690D0028E3032031560D00002211464D
:10569C004068FFF78FBA002211464068FFF7AABA9C
:1056AC00002211464068FFF7B5BA00224068FFF7A8
:1056BC00A9BA002281F001014068FFF793BA0023D8
:1056CC001A4619464068FFF785BA00231A46194650
:1056DC004068FFF777BA002211464068FFF75ABAC4
:1056EC00002202214068FFF75DBA00231A46406889
:1056FC00FFF748BA024B04225A60024A1A607047FC
:10570C0020E7032044690D0000231A464068FFF788
:10571C0039BA002202214068FFF744BA0022114630
:10572C004068FFF737BA002211464068FFF742BACB
:10573C0000231A4619464068FFF744BA00231A465C
:10574C0019464068FFF746BA002281F00101406813
:10575C00FFF748BA00224068FFF754BA00221146FE
:10576C004068FFF757BA002211464068FFF742BA6B
:10577C002DE9F043002495B016460D460746FFF779
:10578C0003FD214620220CA8009400F024FF4023A6
:10579C000C9321466B460CAA3046FFF7B7F804462B
:1057AC00002844D1024601216868FFF703FA022160
:1057BC00804622466868FFF7FDF9009E8146214627
:1057CC00002E34D0002932D17368022B02D00A2B60
:1057DC0009D02AE0B8F1000F27D07169384604319E
:1057EC00FFF7FFFC20E0B9F1000F1ED07469112205
:1057FC0001A800F0F0FE06238DF8143001AD04F181
:10580C0008031834186859682A4603C20833A3429F
:10581C001546F7D101A906A807ADFFF7C3FC0FCDBC
:10582C003C1D0FC42B6823700121F669C8E7009852
:10583C00FFF764F8384615B0BDE8F083024B034A15
:10584C001A6000225A60704728E7032078690D001F
:10585C0070B5044614252A46094E002100F0BBFE03
:10586C00258020253146A5602561284600F040F8AA
:10587C0031466060284600F03BF8E060204670BD81
:10588C00A4690D0030B50E4D296811F0010487B0E4
:10589C0013D12846FEF7FDFB78B101A8FFF7D8FF1E
:1058AC0001AA21460748FFF7D9FD2846FEF7F6FB6B
:1058BC00054A0649034800F00BF8024807B030BD12
:1058CC0034E7032038E7032028E3032011540D00AC
:1058DC000B460146184600F065BE0000024B1868E6
:1058EC00BFF35F8F704700BF4CE70320FEF7CDBBC3
:1058FC0000F000B810B5002814BF0446012420465F
:10590C00FFF798F920B9FFF7E9FF08B18047F6E7F0
:10591C0010BD0000184B1A68D1075CBF01221A6039
:10592C00164B1A68D2075CBF01221A60144B1A6816
:10593C00D0075CBF01221A60124B1A68D1075CBFFA
:10594C0001221A60104B1A68D2075CBF01221A6040
:10595C000E4B1A68D0075CBF01221A600C4B1A68F8
:10596C00D1075CBF01221A600A4B1A68D2075CBFD0
:10597C0001221A60704700BF6CE7032068E7032020
:10598C0064E7032060E703205CE7032058E703206B
:10599C0054E7032050E70320244B1A68D0075CBF60
:1059AC0001221A60224B1A68D1075CBF01221A60CF
:1059BC00204B1A68D2075CBF01221A601E4B1A6872
:1059CC00D0075CBF01221A601C4B1A68D1075CBF60
:1059DC0001221A601A4B1A68D2075CBF01221A60A6
:1059EC00184B1A68D0075CBF01221A60164B1A6854
:1059FC00D1075CBF01221A60144B1A68D2075CBF36
:105A0C0001221A60124B1A68D0075CBF01221A607F
:105A1C00104B1A68D1075CBF01221A600E4B1A6832
:105A2C00D2075CBF01221A60704700BF9CE70320BD
:105A3C0098E7032094E7032090E703208CE70320EA
:105A4C0088E7032084E7032080E703207CE703201A
:105A5C0078E7032074E7032070E70320244B1A68CF
:105A6C00D0075CBF01221A60224B1A68D1075CBFB9
:105A7C0001221A60204B1A68D2075CBF01221A60FF
:105A8C001E4B1A68D0075CBF01221A601C4B1A68A7
:105A9C00D1075CBF01221A601A4B1A68D2075CBF8F
:105AAC0001221A60184B1A68D0075CBF01221A60D9
:105ABC00164B1A68D1075CBF01221A60144B1A6886
:105ACC00D2075CBF01221A60124B1A68D0075CBF68
:105ADC0001221A60104B1A68D1075CBF01221A60B0
:105AEC000E4B1A68D2075CBF01221A60704700BFC8
:105AFC00CCE70320C8E70320C4E70320C0E703205A
:105B0C00BCE70320B8E70320B4E70320B0E7032089
:105B1C00ACE70320A8E70320A4E70320A0E70320B9
:105B2C00184B1A68D1075CBF01221A60164B1A6811
:105B3C00D2075CBF01221A60144B1A68D0075CBFF5
:105B4C0001221A60124B1A68D1075CBF01221A603D
:105B5C00104B1A68D2075CBF01221A600E4B1A68F0
:105B6C00D0075CBF01221A600C4B1A68D1075CBFCE
:105B7C0001221A600A4B1A68D2075CBF01221A6014
:105B8C00704700BFECE70320E8E70320E4E70320BD
:105B9C00E0E70320DCE70320D8E70320D4E7032069
:105BAC00D0E7032081F0004102E000BF83F0004306
:105BBC0030B54FEA41044FEA430594EA050F08BF9C
:105BCC0090EA020F1FBF54EA000C55EA020C7FEA60
:105BDC00645C7FEA655C00F0E2804FEA5454D4EBDD
:105BEC005555B8BF6D420CDD2C4480EA020281EAA7
:105BFC00030382EA000083EA010180EA020281EADF
:105C0C000303362D88BF30BD11F0004F4FEA013130
:105C1C004FF4801C4CEA113102D0404261EB41013F
:105C2C0013F0004F4FEA03334CEA133302D05242C5
:105C3C0063EB430394EA050F00F0A780A4F1010481
:105C4C00D5F1200E0DDB02FA0EFC22FA05F28018BB
:105C5C0041F1000103FA0EF2801843FA05F35941A1
:105C6C000EE0A5F120050EF1200E012A03FA0EFC20
:105C7C0028BF4CF0020C43FA05F3C01851EBE3714A
:105C8C0001F0004507D54FF0000EDCF1000C7EEB67
:105C9C0000006EEB0101B1F5801F1BD3B1F5001FA5
:105CAC000CD349085FEA30004FEA3C0C04F10104C4
:105CBC004FEA445212F5800F80F09A80BCF1004FED
:105CCC0008BF5FEA500C50F1000041EB045141EA6F
:105CDC00050130BD5FEA4C0C404141EB010111F470
:105CEC00801FA4F10104E9D191F0000F04BF01461B
:105CFC000020B1FA81F308BF2033A3F10B03B3F1F9
:105D0C0020020CDA0C3208DD02F1140CC2F10C0288
:105D1C0001FA0CF021FA02F10CE002F11402D8BFE6
:105D2C00C2F1200C01FA02F120FA0CFCDCBF41EAB2
:105D3C000C019040E41AA2BF01EB0451294330BD81
:105D4C006FEA04041F3C1CDA0C340EDC04F114045E
:105D5C00C4F1200220FA04F001FA02F340EA030035
:105D6C0021FA04F345EA030130BDC4F10C04C4F17B
:105D7C00200220FA02F001FA04F340EA030029465B
:105D8C0030BD21FA04F0294630BD94F0000F83F4A5
:105D9C00801306BF81F480110134013D4EE77FEA88
:105DAC00645C18BF7FEA655C29D094EA050F08BFD4
:105DBC0090EA020F05D054EA000C04BF19461046B5
:105DCC0030BD91EA030F1EBF0021002030BD5FEAF9
:105DDC00545C05D14000494128BF41F0004130BD21
:105DEC0014F580043CBF01F5801130BD01F0004575
:105DFC0045F0FE4141F470014FF0000030BD7FEAE8
:105E0C00645C1ABF194610467FEA655C1CBF0B46E2
:105E1C00024650EA013406BF52EA033591EA030FF9
:105E2C0041F4002130BD00BF90F0000F04BF0021F1
:105E3C00704730B54FF4806404F132044FF0000524
:105E4C004FF0000150E700BF90F0000F04BF00219D
:105E5C00704730B54FF4806404F1320410F0004503
:105E6C0048BF40424FF000013EE700BF42004FEAFE
:105E7C00E2014FEA31014FEA02701FBF12F07F437B
:105E8C0093F07F4F81F06051704792F0000F14BF78
:105E9C0093F07F4F704730B54FF4607401F00045BC
:105EAC0021F0004120E700BF50EA010208BF704713
:105EBC0030B54FF000050AE050EA010208BF704708
:105ECC0030B511F0004502D5404261EB41014FF471
:105EDC00806404F132045FEA915C3FF4DCAE4FF075
:105EEC0003025FEADC0C18BF03325FEADC0C18BF5C
:105EFC00033202EBDC02C2F1200300FA03FC20FAAD
:105F0C0002F001FA03FE40EA0E0021FA02F11444F9
:105F1C00C1E600BF70B54FF0FF0C4CF4E06C1CEA0E
:105F2C0011541DBF1CEA135594EA0C0F95EA0C0F83
:105F3C0000F0DEF82C4481EA030621EA4C5123EAF6
:105F4C004C5350EA013518BF52EA033541F4801125
:105F5C0043F4801338D0A0FB02CE4FF00005E1FBD8
:105F6C0002E506F00042E0FB03E54FF00006E1FB22
:105F7C0003569CF0000F18BF4EF0010EA4F1FF0465
:105F8C00B6F5007F64F5407404D25FEA4E0E6D41A5
:105F9C0046EB060642EAC62141EA55514FEAC520B6
:105FAC0040EA5E504FEACE2EB4F1FD0C88BFBCF532
:105FBC00E06F1ED8BEF1004F08BF5FEA500E50F1E3
:105FCC00000041EB045170BD06F0004646EA0101A9
:105FDC0040EA020081EA0301B4EB5C04C2BFD4EBDB
:105FEC000C0541EA045170BD41F480114FF0000ED4
:105FFC00013C00F3AB8014F1360FDEBF002001F042
:10600C00004170BDC4F10004203C35DA0C341BDCBB
:10601C0004F11404C4F1200500FA05F320FA04F08D
:10602C0001FA05F240EA020001F0004221F00041C1
:10603C0010EBD37021FA04F642EB06015EEA430E34
:10604C0008BF20EAD37070BDC4F10C04C4F1200564
:10605C0000FA04F320FA05F001FA04F240EA020017
:10606C0001F0004110EBD37041F100015EEA430EE8
:10607C0008BF20EAD37070BDC4F1200500FA05F208
:10608C004EEA020E20FA04F301FA05F243EA020387
:10609C0021FA04F001F0004121FA04F220EA020096
:1060AC0000EBD3705EEA430E08BF20EAD37070BDDC
:1060BC0094F0000F0FD101F00046400041EB0101BC
:1060CC0011F4801F08BF013CF7D041EA060195F09E
:1060DC00000F18BF704703F00046520043EB030358
:1060EC0013F4801F08BF013DF7D043EA0603704745
:1060FC0094EA0C0F0CEA135518BF95EA0C0F0CD050
:10610C0050EA410618BF52EA4306D1D181EA030195
:10611C0001F000414FF0000070BD50EA410606BF8F
:10612C001046194652EA430619D094EA0C0F02D1D4
:10613C0050EA013613D195EA0C0F05D152EA033619
:10614C001CBF104619460AD181EA030101F0004137
:10615C0041F0FE4141F470014FF0000070BD41F080
:10616C00FE4141F4780170BD70B54FF0FF0C4CF45A
:10617C00E06C1CEA11541DBF1CEA135594EA0C0F79
:10618C0095EA0C0F00F0A7F8A4EB050481EA030EC6
:10619C0052EA03354FEA013100F088804FEA0333AD
:1061AC004FF0805545EA131343EA12634FEA02227B
:1061BC0045EA111545EA10654FEA00260EF000413C
:1061CC009D4208BF964244F1FD0404F5407402D28E
:1061DC005B084FEA3202B61A65EB03055B084FEA1F
:1061EC0032024FF480104FF4002CB6EB020E75EB1C
:1061FC00030E22BFB61A754640EA0C005B084FEA44
:10620C003202B6EB020E75EB030E22BFB61A7546C0
:10621C0040EA5C005B084FEA3202B6EB020E75EB0B
:10622C00030E22BFB61A754640EA9C005B084FEA83
:10623C003202B6EB020E75EB030E22BFB61A754690
:10624C0040EADC0055EA060E18D04FEA051545EA7F
:10625C0016754FEA06164FEAC30343EA52734FEA28
:10626C00C2025FEA1C1CC0D111F4801F0BD141EAA1
:10627C0000014FF000004FF0004CB6E711F4801F06
:10628C0004BF01430020B4F1FD0C88BFBCF5E06FE6
:10629C003FF6AFAEB5EB030C04BFB6EB020C5FEAF6
:1062AC00500C50F1000041EB045170BD0EF0004E4B
:1062BC004EEA113114EB5C04C2BFD4EB0C0541EA7D
:1062CC00045170BD41F480114FF0000E013C90E67A
:1062DC0045EA060E8DE60CEA135594EA0C0F08BF3E
:1062EC0095EA0C0F3FF43BAF94EA0C0F0AD150EA3D
:1062FC0001347FF434AF95EA0C0F7FF425AF1046D0
:10630C0019462CE795EA0C0F06D152EA03353FF4F7
:10631C00FDAE1046194622E750EA410618BF52EA74
:10632C0043067FF4C5AE50EA41047FF40DAF52EA48
:10633C0043057FF4EBAE12E74FF0FF3C06E000BFE5
:10634C004FF0010C02E000BF4FF0010C4DF804CDF2
:10635C004FEA410C7FEA6C5C4FEA430C18BF7FEAB2
:10636C006C5C1BD001B050EA410C0CBF52EA430CE0
:10637C0091EA030F02BF90EA020F0020704710F160
:10638C00000F91EA030F58BF994208BF90422CBFEF
:10639C00D8176FEAE37040F0010070474FEA410CE8
:1063AC007FEA6C5C02D150EA013C07D14FEA430C06
:1063BC007FEA6C5CD6D152EA033CD3D05DF8040B77
:1063CC00704700BF8446104662468C4619466346A9
:1063DC0000E000BF01B5FFF7B7FF002848BF10F180
:1063EC00000F01BD4DF808EDFFF7F4FF0CBF0120C5
:1063FC0000205DF808FB00BF4DF808EDFFF7EAFF41
:10640C0034BF012000205DF808FB00BF4DF808EDFB
:10641C00FFF7E0FF94BF012000205DF808FB00BFF0
:10642C004DF808EDFFF7CEFF94BF012000205DF87A
:10643C0008FB00BF4DF808EDFFF7C4FF34BF012087
:10644C0000205DF808FB00BF4FEA410C7FEA6C5C52
:10645C0002D150EA013C0AD14FEA430C7FEA6C5C52
:10646C0002D152EA033C02D14FF0000070474FF0CA
:10647C00010070474FEA410212F5001215D211D5F6
:10648C006FF47873B3EB625212D94FEAC12343F025
:10649C00004343EA505311F0004F23FA02F018BFA7
:1064AC00404270474FF00000704750EA013005D170
:1064BC0011F0004008BF6FF0004070474FF0000033
:1064CC00704700BF4A0011D212F5001211D20DD53F
:1064DC006FF47873B3EB62520ED44FEAC12343F0DE
:1064EC00004343EA505323FA02F070474FF0000088
:1064FC00704750EA013002D14FF0FF3070474FF037
:10650C00000070474FEA4102B2F1E04324BFB3F5FB
:10651C00001CDCF1FE5C0DD901F0004C4FEAC0020E
:10652C004CEA5070B2F1004F40EB830008BF20F0F2
:10653C000100704711F0804F21D113F13872BCBFAC
:10654C0001F00040704741F480114FEA5252C2F101
:10655C001802C2F1200C10FA0CF320FA02F018BF4A
:10656C0040F001004FEAC1234FEAD32303FA0CFC9D
:10657C0040EA0C0023FA02F34FEA4303CCE77FEA2C
:10658C00625307D150EA01331EBF4FF0FE4040F476
:10659C004000704701F0004040F0FE4040F4000025
:1065AC00704700BF10B5054C13462CB10A46014686
:1065BC000220AFF3008010BD204610BD000000008B
:1065CC0010B5431E0A44914204D011F8014B03F854
:1065DC00014FF8E710BD02440346934202D003F882
:1065EC00011BFAE77047000038B5124B1C68A36B0F
:1065FC000546D3B91820FEF71DFB43F20E33A063FA
:10660C0003804AF6CD33438041F2342383804EF22B
:10661C006D63C3804DF6EC630381052343810B232B
:10662C00838101220023C0E90423A36B00221D6196
:10663C005A6138BD24E30320034613F8012B002ACA
:10664C00FBD1181A013870471D400D0059400D0040
:10665C0085400D0089400D0000000000496E6974F2
:10666C0069616C697A696E672E2E2E004D41583324
:10667C003031303520776173206E6F7420666F7502
:10668C006E642E20506C6561736520636865636B66
:10669C0020776972696E672F706F7765722E200094
:1066AC00506C61636520796F757220696E646578D2
:1066BC002066696E676572206F6E20746865207342
:1066CC00656E736F7220776974682073746561648A
:1066DC00792070726573737572652E0049523D0096
:1066EC002C2042504D3D002C204176672042504DCD
:1066FC003D00204E6F2066696E6765723F00AC00EE
:10670C00410143029F03500542075609640B3F0D9C
:10671C00B80EAC0F001000000000000000000000DC
:10672C00BF4C0D00B54C0D00AB4C0D00A14C0D0039
:10673C00954C0D00894C0D007D4C0D00754C0D00D9
:10674C006B4C0D00614C0D007D570D006E616E00A1
:10675C006F766600696E66006261756400536572DF
:10676C0069616C0053657269616C31007479706594
:10677C0000706172616D00636D6400696400686E25
:10678C0064007374726D0066696C74006C766C00D6
:10679C0061646448616E646C65720072656D6F76DD
:1067AC006548616E646C657200656E756D48616EEE
:1067BC00646C657273004A534F4E53747265616D0D
:1067CC004C6F6748616E646C657200617070002577
:1067DC003031307520005D20002564002C2000280D
:1067EC00293A2000205B00636F6465203D20002562
:1067FC00690064657461696C73203D20000D0A00AA
:10680C006C6E00666E00636F64650064657461692C
:10681C006C006E6F6E6500747261636500696E6604
:10682C006F007761726E006572726F720070616ECC
:10683C00696300616C6C005A00252B3033643A2577
:10684C003032750025592D256D2D25645425483A77
:10685C00254D3A2553257A0061736374696D650083
:10686C00000000000000000031510D0021510D000E
:10687C0023510D00000000000000000009520D0023
:10688C0059520D0067520D00494D0D0045520D0037
:10689C000B520D0021520D0053520D0037520D00BA
:1068AC0005520D00000000000000000015530D0003
:1068BC0065530D0073530D00494D0D0029530D0008
:1068CC004B530D0037530D005F530D0017530D0044
:1068DC001B530D00000000000000000011540D00BF
:1068EC005B540D0033540D0013540D003B540D003C
:1068FC0043540D004B540D0053540D000000000088
:10690C00000000007D550D0073550D0069550D00FC
:10691C005F550D0053550D0047550D003B550D00AF
:10692C0033550D0029550D001F550D007D570D00D9
:10693C000000000000000000F7560D00ED560D00A1
:10694C00E3560D0099560D00D7560D00CB560D0091
:10695C00BF560D00B7560D00AD560D00A3560D00D9
:10696C007D570D00000000000000000015570D00C1
:10697C001F570D0029570D0033570D003D570D00C3
:10698C0049570D0055570D0061570D0069570D0003
:10699C0073570D007D570D00000000000000000033
:1069AC0000000000000000000000000000000000DB
:1069BC0000000000000000000000000000000000CB
:1069CC0000000000000000000000000000000000BB
:1069DC0000000000000000000000000000000000AB
:1069EC00000000000000000000000000000000009B
:1069FC000000000000000000000000004300000048
:106A0C00A1420D0035440D00FF480D0003490D0057
:106A1C00C94C0D00DD4C0D00214D0D00AD4F0D008E
:106A2C00BD4F0D00F54F0D0049560D0001570D00DF
:106A3C0049580D0021590D00A5590D00695A0D003A
:046A4C002D5B0D00B1
:046A50000000000042
:106A5400ECFF140064680D0000000000A8690D003C
:106A6400C8690D00E8690D00000000000000000086
:106A74000000000000000000086A0D000000000093
:106A84000000000000000000000000000000000002
:106A940000000000000000000000000000000000F2
:106AA40000000000000000000000000000000000E2
:0C6AB4000000000000000000C4E203200D
:106AC000FFFFFFFF00000102030405060708090A93
:106AD0000B0C0D0E0F101112131415161718191A8E
:086AE0001B1C1D1E1F202800D5
:046AE8007856341296
:04000003D000401CCD
:00000001FF
